{
	"coin_time.sol": {
		"first_coin": {
			"abi": [
				{
					"inputs": [
						{
							"internalType": "string",
							"name": "firstName",
							"type": "string"
						},
						{
							"internalType": "string",
							"name": "lastName",
							"type": "string"
						}
					],
					"name": "addPlayer",
					"outputs": [],
					"stateMutability": "nonpayable",
					"type": "function"
				},
				{
					"inputs": [
						{
							"internalType": "address",
							"name": "playerAddress",
							"type": "address"
						}
					],
					"name": "changePlayerLevel",
					"outputs": [],
					"stateMutability": "nonpayable",
					"type": "function"
				},
				{
					"inputs": [],
					"name": "playerCount",
					"outputs": [
						{
							"internalType": "uint256",
							"name": "",
							"type": "uint256"
						}
					],
					"stateMutability": "view",
					"type": "function"
				},
				{
					"inputs": [
						{
							"internalType": "address",
							"name": "",
							"type": "address"
						}
					],
					"name": "players",
					"outputs": [
						{
							"internalType": "address",
							"name": "playerAddress",
							"type": "address"
						},
						{
							"internalType": "enum first_coin.Level",
							"name": "playerLevel",
							"type": "uint8"
						},
						{
							"internalType": "string",
							"name": "firstName",
							"type": "string"
						},
						{
							"internalType": "string",
							"name": "lastName",
							"type": "string"
						},
						{
							"internalType": "uint256",
							"name": "createTime",
							"type": "uint256"
						}
					],
					"stateMutability": "view",
					"type": "function"
				}
			],
			"devdoc": {
				"kind": "dev",
				"methods": {},
				"version": 1
			},
			"evm": {
				"assembly": "    /* \"coin_time.sol\":68:870  contract first_coin{... */\n  mstore(0x40, 0x80)\n    /* \"coin_time.sol\":120:121  0 */\n  0x00\n    /* \"coin_time.sol\":94:121  uint public playerCount = 0 */\n  dup1\n  sstore\n    /* \"coin_time.sol\":68:870  contract first_coin{... */\n  callvalue\n  dup1\n  iszero\n  tag_1\n  jumpi\n  0x00\n  dup1\n  revert\ntag_1:\n  pop\n  dataSize(sub_0)\n  dup1\n  dataOffset(sub_0)\n  0x00\n  codecopy\n  0x00\n  return\nstop\n\nsub_0: assembly {\n        /* \"coin_time.sol\":68:870  contract first_coin{... */\n      mstore(0x40, 0x80)\n      callvalue\n      dup1\n      iszero\n      tag_1\n      jumpi\n      0x00\n      dup1\n      revert\n    tag_1:\n      pop\n      jumpi(tag_2, lt(calldatasize, 0x04))\n      shr(0xe0, calldataload(0x00))\n      dup1\n      0x302bcc57\n      eq\n      tag_3\n      jumpi\n      dup1\n      0x5cb119a9\n      eq\n      tag_4\n      jumpi\n      dup1\n      0x8ddf0f7d\n      eq\n      tag_5\n      jumpi\n      dup1\n      0xe2eb41ff\n      eq\n      tag_6\n      jumpi\n    tag_2:\n      0x00\n      dup1\n      revert\n        /* \"coin_time.sol\":94:121  uint public playerCount = 0 */\n    tag_3:\n      tag_7\n      tag_8\n      jump\t// in\n    tag_7:\n      mload(0x40)\n      tag_9\n      swap2\n      swap1\n      tag_10\n      jump\t// in\n    tag_9:\n      mload(0x40)\n      dup1\n      swap2\n      sub\n      swap1\n      return\n        /* \"coin_time.sol\":399:616  function addPlayer (string memory firstName, string memory lastName) public {... */\n    tag_4:\n      tag_11\n      0x04\n      dup1\n      calldatasize\n      sub\n      dup2\n      add\n      swap1\n      tag_12\n      swap2\n      swap1\n      tag_13\n      jump\t// in\n    tag_12:\n      tag_14\n      jump\t// in\n    tag_11:\n      stop\n        /* \"coin_time.sol\":622:867  function changePlayerLevel (address playerAddress) public {... */\n    tag_5:\n      tag_15\n      0x04\n      dup1\n      calldatasize\n      sub\n      dup2\n      add\n      swap1\n      tag_16\n      swap2\n      swap1\n      tag_17\n      jump\t// in\n    tag_16:\n      tag_18\n      jump\t// in\n    tag_15:\n      stop\n        /* \"coin_time.sol\":128:170  mapping (address => Player) public players */\n    tag_6:\n      tag_19\n      0x04\n      dup1\n      calldatasize\n      sub\n      dup2\n      add\n      swap1\n      tag_20\n      swap2\n      swap1\n      tag_17\n      jump\t// in\n    tag_20:\n      tag_21\n      jump\t// in\n    tag_19:\n      mload(0x40)\n      tag_22\n      swap6\n      swap5\n      swap4\n      swap3\n      swap2\n      swap1\n      tag_23\n      jump\t// in\n    tag_22:\n      mload(0x40)\n      dup1\n      swap2\n      sub\n      swap1\n      return\n        /* \"coin_time.sol\":94:121  uint public playerCount = 0 */\n    tag_8:\n      sload(0x00)\n      dup2\n      jump\t// out\n        /* \"coin_time.sol\":399:616  function addPlayer (string memory firstName, string memory lastName) public {... */\n    tag_14:\n        /* \"coin_time.sol\":507:580  Player (msg.sender, Level.Beginner, firstName, lastName, block.timestamp) */\n      mload(0x40)\n      dup1\n      0xa0\n      add\n      0x40\n      mstore\n      dup1\n        /* \"coin_time.sol\":515:525  msg.sender */\n      caller\n        /* \"coin_time.sol\":507:580  Player (msg.sender, Level.Beginner, firstName, lastName, block.timestamp) */\n      0xffffffffffffffffffffffffffffffffffffffff\n      and\n      dup2\n      mstore\n      0x20\n      add\n        /* \"coin_time.sol\":527:541  Level.Beginner */\n      0x00\n        /* \"coin_time.sol\":507:580  Player (msg.sender, Level.Beginner, firstName, lastName, block.timestamp) */\n      0x02\n      dup2\n      gt\n      iszero\n      tag_25\n      jumpi\n      tag_26\n      tag_27\n      jump\t// in\n    tag_26:\n    tag_25:\n      dup2\n      mstore\n      0x20\n      add\n        /* \"coin_time.sol\":543:552  firstName */\n      dup4\n        /* \"coin_time.sol\":507:580  Player (msg.sender, Level.Beginner, firstName, lastName, block.timestamp) */\n      dup2\n      mstore\n      0x20\n      add\n        /* \"coin_time.sol\":554:562  lastName */\n      dup3\n        /* \"coin_time.sol\":507:580  Player (msg.sender, Level.Beginner, firstName, lastName, block.timestamp) */\n      dup2\n      mstore\n      0x20\n      add\n        /* \"coin_time.sol\":564:579  block.timestamp */\n      timestamp\n        /* \"coin_time.sol\":507:580  Player (msg.sender, Level.Beginner, firstName, lastName, block.timestamp) */\n      dup2\n      mstore\n      pop\n        /* \"coin_time.sol\":486:493  players */\n      0x01\n        /* \"coin_time.sol\":486:505  players[msg.sender] */\n      0x00\n        /* \"coin_time.sol\":494:504  msg.sender */\n      caller\n        /* \"coin_time.sol\":486:505  players[msg.sender] */\n      0xffffffffffffffffffffffffffffffffffffffff\n      and\n      0xffffffffffffffffffffffffffffffffffffffff\n      and\n      dup2\n      mstore\n      0x20\n      add\n      swap1\n      dup2\n      mstore\n      0x20\n      add\n      0x00\n      keccak256\n        /* \"coin_time.sol\":486:580  players[msg.sender] =Player (msg.sender, Level.Beginner, firstName, lastName, block.timestamp) */\n      0x00\n      dup3\n      add\n      mload\n      dup2\n      0x00\n      add\n      exp(0x0100, 0x00)\n      dup2\n      sload\n      dup2\n      0xffffffffffffffffffffffffffffffffffffffff\n      mul\n      not\n      and\n      swap1\n      dup4\n      0xffffffffffffffffffffffffffffffffffffffff\n      and\n      mul\n      or\n      swap1\n      sstore\n      pop\n      0x20\n      dup3\n      add\n      mload\n      dup2\n      0x00\n      add\n      exp(0x0100, 0x14)\n      dup2\n      sload\n      dup2\n      0xff\n      mul\n      not\n      and\n      swap1\n      dup4\n      0x02\n      dup2\n      gt\n      iszero\n      tag_28\n      jumpi\n      tag_29\n      tag_27\n      jump\t// in\n    tag_29:\n    tag_28:\n      mul\n      or\n      swap1\n      sstore\n      pop\n      0x40\n      dup3\n      add\n      mload\n      dup2\n      0x01\n      add\n      swap1\n      dup2\n      tag_30\n      swap2\n      swap1\n      tag_31\n      jump\t// in\n    tag_30:\n      pop\n      0x60\n      dup3\n      add\n      mload\n      dup2\n      0x02\n      add\n      swap1\n      dup2\n      tag_32\n      swap2\n      swap1\n      tag_31\n      jump\t// in\n    tag_32:\n      pop\n      0x80\n      dup3\n      add\n      mload\n      dup2\n      0x03\n      add\n      sstore\n      swap1\n      pop\n      pop\n        /* \"coin_time.sol\":606:607  1 */\n      0x01\n        /* \"coin_time.sol\":591:602  playerCount */\n      0x00\n      dup1\n        /* \"coin_time.sol\":591:607  playerCount += 1 */\n      dup3\n      dup3\n      sload\n      tag_33\n      swap2\n      swap1\n      tag_34\n      jump\t// in\n    tag_33:\n      swap3\n      pop\n      pop\n      dup2\n      swap1\n      sstore\n      pop\n        /* \"coin_time.sol\":399:616  function addPlayer (string memory firstName, string memory lastName) public {... */\n      pop\n      pop\n      jump\t// out\n        /* \"coin_time.sol\":622:867  function changePlayerLevel (address playerAddress) public {... */\n    tag_18:\n        /* \"coin_time.sol\":691:712  Player storage player */\n      0x00\n        /* \"coin_time.sol\":715:722  players */\n      0x01\n        /* \"coin_time.sol\":715:737  players[playerAddress] */\n      0x00\n        /* \"coin_time.sol\":723:736  playerAddress */\n      dup4\n        /* \"coin_time.sol\":715:737  players[playerAddress] */\n      0xffffffffffffffffffffffffffffffffffffffff\n      and\n      0xffffffffffffffffffffffffffffffffffffffff\n      and\n      dup2\n      mstore\n      0x20\n      add\n      swap1\n      dup2\n      mstore\n      0x20\n      add\n      0x00\n      keccak256\n        /* \"coin_time.sol\":691:737  Player storage player = players[playerAddress] */\n      swap1\n      pop\n        /* \"coin_time.sol\":791:793  15 */\n      0x0f\n        /* \"coin_time.sol\":772:778  player */\n      dup2\n        /* \"coin_time.sol\":772:789  player.createTime */\n      0x03\n      add\n      sload\n        /* \"coin_time.sol\":772:793  player.createTime +15 */\n      tag_36\n      swap2\n      swap1\n      tag_34\n      jump\t// in\n    tag_36:\n        /* \"coin_time.sol\":753:768  block.timestamp */\n      timestamp\n        /* \"coin_time.sol\":753:793  block.timestamp >= player.createTime +15 */\n      lt\n        /* \"coin_time.sol\":749:860  if (block.timestamp >= player.createTime +15){... */\n      tag_37\n      jumpi\n        /* \"coin_time.sol\":830:848  Level.Intermediate */\n      0x01\n        /* \"coin_time.sol\":809:815  player */\n      dup2\n        /* \"coin_time.sol\":809:827  player.playerLevel */\n      0x00\n      add\n      0x14\n        /* \"coin_time.sol\":809:848  player.playerLevel = Level.Intermediate */\n      0x0100\n      exp\n      dup2\n      sload\n      dup2\n      0xff\n      mul\n      not\n      and\n      swap1\n      dup4\n      0x02\n      dup2\n      gt\n      iszero\n      tag_38\n      jumpi\n      tag_39\n      tag_27\n      jump\t// in\n    tag_39:\n    tag_38:\n      mul\n      or\n      swap1\n      sstore\n      pop\n        /* \"coin_time.sol\":749:860  if (block.timestamp >= player.createTime +15){... */\n    tag_37:\n        /* \"coin_time.sol\":680:867  {... */\n      pop\n        /* \"coin_time.sol\":622:867  function changePlayerLevel (address playerAddress) public {... */\n      pop\n      jump\t// out\n        /* \"coin_time.sol\":128:170  mapping (address => Player) public players */\n    tag_21:\n      mstore(0x20, 0x01)\n      dup1\n      0x00\n      mstore\n      keccak256(0x00, 0x40)\n      0x00\n      swap2\n      pop\n      swap1\n      pop\n      dup1\n      0x00\n      add\n      0x00\n      swap1\n      sload\n      swap1\n      0x0100\n      exp\n      swap1\n      div\n      0xffffffffffffffffffffffffffffffffffffffff\n      and\n      swap1\n      dup1\n      0x00\n      add\n      0x14\n      swap1\n      sload\n      swap1\n      0x0100\n      exp\n      swap1\n      div\n      0xff\n      and\n      swap1\n      dup1\n      0x01\n      add\n      dup1\n      sload\n      tag_40\n      swap1\n      tag_41\n      jump\t// in\n    tag_40:\n      dup1\n      0x1f\n      add\n      0x20\n      dup1\n      swap2\n      div\n      mul\n      0x20\n      add\n      mload(0x40)\n      swap1\n      dup2\n      add\n      0x40\n      mstore\n      dup1\n      swap3\n      swap2\n      swap1\n      dup2\n      dup2\n      mstore\n      0x20\n      add\n      dup3\n      dup1\n      sload\n      tag_42\n      swap1\n      tag_41\n      jump\t// in\n    tag_42:\n      dup1\n      iszero\n      tag_43\n      jumpi\n      dup1\n      0x1f\n      lt\n      tag_44\n      jumpi\n      0x0100\n      dup1\n      dup4\n      sload\n      div\n      mul\n      dup4\n      mstore\n      swap2\n      0x20\n      add\n      swap2\n      jump(tag_43)\n    tag_44:\n      dup3\n      add\n      swap2\n      swap1\n      0x00\n      mstore\n      keccak256(0x00, 0x20)\n      swap1\n    tag_45:\n      dup2\n      sload\n      dup2\n      mstore\n      swap1\n      0x01\n      add\n      swap1\n      0x20\n      add\n      dup1\n      dup4\n      gt\n      tag_45\n      jumpi\n      dup3\n      swap1\n      sub\n      0x1f\n      and\n      dup3\n      add\n      swap2\n    tag_43:\n      pop\n      pop\n      pop\n      pop\n      pop\n      swap1\n      dup1\n      0x02\n      add\n      dup1\n      sload\n      tag_46\n      swap1\n      tag_41\n      jump\t// in\n    tag_46:\n      dup1\n      0x1f\n      add\n      0x20\n      dup1\n      swap2\n      div\n      mul\n      0x20\n      add\n      mload(0x40)\n      swap1\n      dup2\n      add\n      0x40\n      mstore\n      dup1\n      swap3\n      swap2\n      swap1\n      dup2\n      dup2\n      mstore\n      0x20\n      add\n      dup3\n      dup1\n      sload\n      tag_47\n      swap1\n      tag_41\n      jump\t// in\n    tag_47:\n      dup1\n      iszero\n      tag_48\n      jumpi\n      dup1\n      0x1f\n      lt\n      tag_49\n      jumpi\n      0x0100\n      dup1\n      dup4\n      sload\n      div\n      mul\n      dup4\n      mstore\n      swap2\n      0x20\n      add\n      swap2\n      jump(tag_48)\n    tag_49:\n      dup3\n      add\n      swap2\n      swap1\n      0x00\n      mstore\n      keccak256(0x00, 0x20)\n      swap1\n    tag_50:\n      dup2\n      sload\n      dup2\n      mstore\n      swap1\n      0x01\n      add\n      swap1\n      0x20\n      add\n      dup1\n      dup4\n      gt\n      tag_50\n      jumpi\n      dup3\n      swap1\n      sub\n      0x1f\n      and\n      dup3\n      add\n      swap2\n    tag_48:\n      pop\n      pop\n      pop\n      pop\n      pop\n      swap1\n      dup1\n      0x03\n      add\n      sload\n      swap1\n      pop\n      dup6\n      jump\t// out\n        /* \"#utility.yul\":7:84   */\n    tag_51:\n        /* \"#utility.yul\":44:51   */\n      0x00\n        /* \"#utility.yul\":73:78   */\n      dup2\n        /* \"#utility.yul\":62:78   */\n      swap1\n      pop\n        /* \"#utility.yul\":7:84   */\n      swap2\n      swap1\n      pop\n      jump\t// out\n        /* \"#utility.yul\":90:208   */\n    tag_52:\n        /* \"#utility.yul\":177:201   */\n      tag_99\n        /* \"#utility.yul\":195:200   */\n      dup2\n        /* \"#utility.yul\":177:201   */\n      tag_51\n      jump\t// in\n    tag_99:\n        /* \"#utility.yul\":172:175   */\n      dup3\n        /* \"#utility.yul\":165:202   */\n      mstore\n        /* \"#utility.yul\":90:208   */\n      pop\n      pop\n      jump\t// out\n        /* \"#utility.yul\":214:436   */\n    tag_10:\n        /* \"#utility.yul\":307:311   */\n      0x00\n        /* \"#utility.yul\":345:347   */\n      0x20\n        /* \"#utility.yul\":334:343   */\n      dup3\n        /* \"#utility.yul\":330:348   */\n      add\n        /* \"#utility.yul\":322:348   */\n      swap1\n      pop\n        /* \"#utility.yul\":358:429   */\n      tag_101\n        /* \"#utility.yul\":426:427   */\n      0x00\n        /* \"#utility.yul\":415:424   */\n      dup4\n        /* \"#utility.yul\":411:428   */\n      add\n        /* \"#utility.yul\":402:408   */\n      dup5\n        /* \"#utility.yul\":358:429   */\n      tag_52\n      jump\t// in\n    tag_101:\n        /* \"#utility.yul\":214:436   */\n      swap3\n      swap2\n      pop\n      pop\n      jump\t// out\n        /* \"#utility.yul\":442:517   */\n    tag_53:\n        /* \"#utility.yul\":475:481   */\n      0x00\n        /* \"#utility.yul\":508:510   */\n      0x40\n        /* \"#utility.yul\":502:511   */\n      mload\n        /* \"#utility.yul\":492:511   */\n      swap1\n      pop\n        /* \"#utility.yul\":442:517   */\n      swap1\n      jump\t// out\n        /* \"#utility.yul\":523:640   */\n    tag_54:\n        /* \"#utility.yul\":632:633   */\n      0x00\n        /* \"#utility.yul\":629:630   */\n      dup1\n        /* \"#utility.yul\":622:634   */\n      revert\n        /* \"#utility.yul\":646:763   */\n    tag_55:\n        /* \"#utility.yul\":755:756   */\n      0x00\n        /* \"#utility.yul\":752:753   */\n      dup1\n        /* \"#utility.yul\":745:757   */\n      revert\n        /* \"#utility.yul\":769:886   */\n    tag_56:\n        /* \"#utility.yul\":878:879   */\n      0x00\n        /* \"#utility.yul\":875:876   */\n      dup1\n        /* \"#utility.yul\":868:880   */\n      revert\n        /* \"#utility.yul\":892:1009   */\n    tag_57:\n        /* \"#utility.yul\":1001:1002   */\n      0x00\n        /* \"#utility.yul\":998:999   */\n      dup1\n        /* \"#utility.yul\":991:1003   */\n      revert\n        /* \"#utility.yul\":1015:1117   */\n    tag_58:\n        /* \"#utility.yul\":1056:1062   */\n      0x00\n        /* \"#utility.yul\":1107:1109   */\n      0x1f\n        /* \"#utility.yul\":1103:1110   */\n      not\n        /* \"#utility.yul\":1098:1100   */\n      0x1f\n        /* \"#utility.yul\":1091:1096   */\n      dup4\n        /* \"#utility.yul\":1087:1101   */\n      add\n        /* \"#utility.yul\":1083:1111   */\n      and\n        /* \"#utility.yul\":1073:1111   */\n      swap1\n      pop\n        /* \"#utility.yul\":1015:1117   */\n      swap2\n      swap1\n      pop\n      jump\t// out\n        /* \"#utility.yul\":1123:1303   */\n    tag_59:\n        /* \"#utility.yul\":1171:1248   */\n      0x4e487b7100000000000000000000000000000000000000000000000000000000\n        /* \"#utility.yul\":1168:1169   */\n      0x00\n        /* \"#utility.yul\":1161:1249   */\n      mstore\n        /* \"#utility.yul\":1268:1272   */\n      0x41\n        /* \"#utility.yul\":1265:1266   */\n      0x04\n        /* \"#utility.yul\":1258:1273   */\n      mstore\n        /* \"#utility.yul\":1292:1296   */\n      0x24\n        /* \"#utility.yul\":1289:1290   */\n      0x00\n        /* \"#utility.yul\":1282:1297   */\n      revert\n        /* \"#utility.yul\":1309:1590   */\n    tag_60:\n        /* \"#utility.yul\":1392:1419   */\n      tag_110\n        /* \"#utility.yul\":1414:1418   */\n      dup3\n        /* \"#utility.yul\":1392:1419   */\n      tag_58\n      jump\t// in\n    tag_110:\n        /* \"#utility.yul\":1384:1390   */\n      dup2\n        /* \"#utility.yul\":1380:1420   */\n      add\n        /* \"#utility.yul\":1522:1528   */\n      dup2\n        /* \"#utility.yul\":1510:1520   */\n      dup2\n        /* \"#utility.yul\":1507:1529   */\n      lt\n        /* \"#utility.yul\":1486:1504   */\n      0xffffffffffffffff\n        /* \"#utility.yul\":1474:1484   */\n      dup3\n        /* \"#utility.yul\":1471:1505   */\n      gt\n        /* \"#utility.yul\":1468:1530   */\n      or\n        /* \"#utility.yul\":1465:1553   */\n      iszero\n      tag_111\n      jumpi\n        /* \"#utility.yul\":1533:1551   */\n      tag_112\n      tag_59\n      jump\t// in\n    tag_112:\n        /* \"#utility.yul\":1465:1553   */\n    tag_111:\n        /* \"#utility.yul\":1573:1583   */\n      dup1\n        /* \"#utility.yul\":1569:1571   */\n      0x40\n        /* \"#utility.yul\":1562:1584   */\n      mstore\n        /* \"#utility.yul\":1352:1590   */\n      pop\n        /* \"#utility.yul\":1309:1590   */\n      pop\n      pop\n      jump\t// out\n        /* \"#utility.yul\":1596:1725   */\n    tag_61:\n        /* \"#utility.yul\":1630:1636   */\n      0x00\n        /* \"#utility.yul\":1657:1677   */\n      tag_114\n      tag_53\n      jump\t// in\n    tag_114:\n        /* \"#utility.yul\":1647:1677   */\n      swap1\n      pop\n        /* \"#utility.yul\":1686:1719   */\n      tag_115\n        /* \"#utility.yul\":1714:1718   */\n      dup3\n        /* \"#utility.yul\":1706:1712   */\n      dup3\n        /* \"#utility.yul\":1686:1719   */\n      tag_60\n      jump\t// in\n    tag_115:\n        /* \"#utility.yul\":1596:1725   */\n      swap2\n      swap1\n      pop\n      jump\t// out\n        /* \"#utility.yul\":1731:2039   */\n    tag_62:\n        /* \"#utility.yul\":1793:1797   */\n      0x00\n        /* \"#utility.yul\":1883:1901   */\n      0xffffffffffffffff\n        /* \"#utility.yul\":1875:1881   */\n      dup3\n        /* \"#utility.yul\":1872:1902   */\n      gt\n        /* \"#utility.yul\":1869:1925   */\n      iszero\n      tag_117\n      jumpi\n        /* \"#utility.yul\":1905:1923   */\n      tag_118\n      tag_59\n      jump\t// in\n    tag_118:\n        /* \"#utility.yul\":1869:1925   */\n    tag_117:\n        /* \"#utility.yul\":1943:1972   */\n      tag_119\n        /* \"#utility.yul\":1965:1971   */\n      dup3\n        /* \"#utility.yul\":1943:1972   */\n      tag_58\n      jump\t// in\n    tag_119:\n        /* \"#utility.yul\":1935:1972   */\n      swap1\n      pop\n        /* \"#utility.yul\":2027:2031   */\n      0x20\n        /* \"#utility.yul\":2021:2025   */\n      dup2\n        /* \"#utility.yul\":2017:2032   */\n      add\n        /* \"#utility.yul\":2009:2032   */\n      swap1\n      pop\n        /* \"#utility.yul\":1731:2039   */\n      swap2\n      swap1\n      pop\n      jump\t// out\n        /* \"#utility.yul\":2045:2191   */\n    tag_63:\n        /* \"#utility.yul\":2142:2148   */\n      dup3\n        /* \"#utility.yul\":2137:2140   */\n      dup2\n        /* \"#utility.yul\":2132:2135   */\n      dup4\n        /* \"#utility.yul\":2119:2149   */\n      calldatacopy\n        /* \"#utility.yul\":2183:2184   */\n      0x00\n        /* \"#utility.yul\":2174:2180   */\n      dup4\n        /* \"#utility.yul\":2169:2172   */\n      dup4\n        /* \"#utility.yul\":2165:2181   */\n      add\n        /* \"#utility.yul\":2158:2185   */\n      mstore\n        /* \"#utility.yul\":2045:2191   */\n      pop\n      pop\n      pop\n      jump\t// out\n        /* \"#utility.yul\":2197:2622   */\n    tag_64:\n        /* \"#utility.yul\":2275:2280   */\n      0x00\n        /* \"#utility.yul\":2300:2366   */\n      tag_122\n        /* \"#utility.yul\":2316:2365   */\n      tag_123\n        /* \"#utility.yul\":2358:2364   */\n      dup5\n        /* \"#utility.yul\":2316:2365   */\n      tag_62\n      jump\t// in\n    tag_123:\n        /* \"#utility.yul\":2300:2366   */\n      tag_61\n      jump\t// in\n    tag_122:\n        /* \"#utility.yul\":2291:2366   */\n      swap1\n      pop\n        /* \"#utility.yul\":2389:2395   */\n      dup3\n        /* \"#utility.yul\":2382:2387   */\n      dup2\n        /* \"#utility.yul\":2375:2396   */\n      mstore\n        /* \"#utility.yul\":2427:2431   */\n      0x20\n        /* \"#utility.yul\":2420:2425   */\n      dup2\n        /* \"#utility.yul\":2416:2432   */\n      add\n        /* \"#utility.yul\":2465:2468   */\n      dup5\n        /* \"#utility.yul\":2456:2462   */\n      dup5\n        /* \"#utility.yul\":2451:2454   */\n      dup5\n        /* \"#utility.yul\":2447:2463   */\n      add\n        /* \"#utility.yul\":2444:2469   */\n      gt\n        /* \"#utility.yul\":2441:2553   */\n      iszero\n      tag_124\n      jumpi\n        /* \"#utility.yul\":2472:2551   */\n      tag_125\n      tag_57\n      jump\t// in\n    tag_125:\n        /* \"#utility.yul\":2441:2553   */\n    tag_124:\n        /* \"#utility.yul\":2562:2616   */\n      tag_126\n        /* \"#utility.yul\":2609:2615   */\n      dup5\n        /* \"#utility.yul\":2604:2607   */\n      dup3\n        /* \"#utility.yul\":2599:2602   */\n      dup6\n        /* \"#utility.yul\":2562:2616   */\n      tag_63\n      jump\t// in\n    tag_126:\n        /* \"#utility.yul\":2281:2622   */\n      pop\n        /* \"#utility.yul\":2197:2622   */\n      swap4\n      swap3\n      pop\n      pop\n      pop\n      jump\t// out\n        /* \"#utility.yul\":2642:2982   */\n    tag_65:\n        /* \"#utility.yul\":2698:2703   */\n      0x00\n        /* \"#utility.yul\":2747:2750   */\n      dup3\n        /* \"#utility.yul\":2740:2744   */\n      0x1f\n        /* \"#utility.yul\":2732:2738   */\n      dup4\n        /* \"#utility.yul\":2728:2745   */\n      add\n        /* \"#utility.yul\":2724:2751   */\n      slt\n        /* \"#utility.yul\":2714:2836   */\n      tag_128\n      jumpi\n        /* \"#utility.yul\":2755:2834   */\n      tag_129\n      tag_56\n      jump\t// in\n    tag_129:\n        /* \"#utility.yul\":2714:2836   */\n    tag_128:\n        /* \"#utility.yul\":2872:2878   */\n      dup2\n        /* \"#utility.yul\":2859:2879   */\n      calldataload\n        /* \"#utility.yul\":2897:2976   */\n      tag_130\n        /* \"#utility.yul\":2972:2975   */\n      dup5\n        /* \"#utility.yul\":2964:2970   */\n      dup3\n        /* \"#utility.yul\":2957:2961   */\n      0x20\n        /* \"#utility.yul\":2949:2955   */\n      dup7\n        /* \"#utility.yul\":2945:2962   */\n      add\n        /* \"#utility.yul\":2897:2976   */\n      tag_64\n      jump\t// in\n    tag_130:\n        /* \"#utility.yul\":2888:2976   */\n      swap2\n      pop\n        /* \"#utility.yul\":2704:2982   */\n      pop\n        /* \"#utility.yul\":2642:2982   */\n      swap3\n      swap2\n      pop\n      pop\n      jump\t// out\n        /* \"#utility.yul\":2988:3822   */\n    tag_13:\n        /* \"#utility.yul\":3076:3082   */\n      0x00\n        /* \"#utility.yul\":3084:3090   */\n      dup1\n        /* \"#utility.yul\":3133:3135   */\n      0x40\n        /* \"#utility.yul\":3121:3130   */\n      dup4\n        /* \"#utility.yul\":3112:3119   */\n      dup6\n        /* \"#utility.yul\":3108:3131   */\n      sub\n        /* \"#utility.yul\":3104:3136   */\n      slt\n        /* \"#utility.yul\":3101:3220   */\n      iszero\n      tag_132\n      jumpi\n        /* \"#utility.yul\":3139:3218   */\n      tag_133\n      tag_54\n      jump\t// in\n    tag_133:\n        /* \"#utility.yul\":3101:3220   */\n    tag_132:\n        /* \"#utility.yul\":3287:3288   */\n      0x00\n        /* \"#utility.yul\":3276:3285   */\n      dup4\n        /* \"#utility.yul\":3272:3289   */\n      add\n        /* \"#utility.yul\":3259:3290   */\n      calldataload\n        /* \"#utility.yul\":3317:3335   */\n      0xffffffffffffffff\n        /* \"#utility.yul\":3309:3315   */\n      dup2\n        /* \"#utility.yul\":3306:3336   */\n      gt\n        /* \"#utility.yul\":3303:3420   */\n      iszero\n      tag_134\n      jumpi\n        /* \"#utility.yul\":3339:3418   */\n      tag_135\n      tag_55\n      jump\t// in\n    tag_135:\n        /* \"#utility.yul\":3303:3420   */\n    tag_134:\n        /* \"#utility.yul\":3444:3507   */\n      tag_136\n        /* \"#utility.yul\":3499:3506   */\n      dup6\n        /* \"#utility.yul\":3490:3496   */\n      dup3\n        /* \"#utility.yul\":3479:3488   */\n      dup7\n        /* \"#utility.yul\":3475:3497   */\n      add\n        /* \"#utility.yul\":3444:3507   */\n      tag_65\n      jump\t// in\n    tag_136:\n        /* \"#utility.yul\":3434:3507   */\n      swap3\n      pop\n        /* \"#utility.yul\":3230:3517   */\n      pop\n        /* \"#utility.yul\":3584:3586   */\n      0x20\n        /* \"#utility.yul\":3573:3582   */\n      dup4\n        /* \"#utility.yul\":3569:3587   */\n      add\n        /* \"#utility.yul\":3556:3588   */\n      calldataload\n        /* \"#utility.yul\":3615:3633   */\n      0xffffffffffffffff\n        /* \"#utility.yul\":3607:3613   */\n      dup2\n        /* \"#utility.yul\":3604:3634   */\n      gt\n        /* \"#utility.yul\":3601:3718   */\n      iszero\n      tag_137\n      jumpi\n        /* \"#utility.yul\":3637:3716   */\n      tag_138\n      tag_55\n      jump\t// in\n    tag_138:\n        /* \"#utility.yul\":3601:3718   */\n    tag_137:\n        /* \"#utility.yul\":3742:3805   */\n      tag_139\n        /* \"#utility.yul\":3797:3804   */\n      dup6\n        /* \"#utility.yul\":3788:3794   */\n      dup3\n        /* \"#utility.yul\":3777:3786   */\n      dup7\n        /* \"#utility.yul\":3773:3795   */\n      add\n        /* \"#utility.yul\":3742:3805   */\n      tag_65\n      jump\t// in\n    tag_139:\n        /* \"#utility.yul\":3732:3805   */\n      swap2\n      pop\n        /* \"#utility.yul\":3527:3815   */\n      pop\n        /* \"#utility.yul\":2988:3822   */\n      swap3\n      pop\n      swap3\n      swap1\n      pop\n      jump\t// out\n        /* \"#utility.yul\":3828:3954   */\n    tag_66:\n        /* \"#utility.yul\":3865:3872   */\n      0x00\n        /* \"#utility.yul\":3905:3947   */\n      0xffffffffffffffffffffffffffffffffffffffff\n        /* \"#utility.yul\":3898:3903   */\n      dup3\n        /* \"#utility.yul\":3894:3948   */\n      and\n        /* \"#utility.yul\":3883:3948   */\n      swap1\n      pop\n        /* \"#utility.yul\":3828:3954   */\n      swap2\n      swap1\n      pop\n      jump\t// out\n        /* \"#utility.yul\":3960:4056   */\n    tag_67:\n        /* \"#utility.yul\":3997:4004   */\n      0x00\n        /* \"#utility.yul\":4026:4050   */\n      tag_142\n        /* \"#utility.yul\":4044:4049   */\n      dup3\n        /* \"#utility.yul\":4026:4050   */\n      tag_66\n      jump\t// in\n    tag_142:\n        /* \"#utility.yul\":4015:4050   */\n      swap1\n      pop\n        /* \"#utility.yul\":3960:4056   */\n      swap2\n      swap1\n      pop\n      jump\t// out\n        /* \"#utility.yul\":4062:4184   */\n    tag_68:\n        /* \"#utility.yul\":4135:4159   */\n      tag_144\n        /* \"#utility.yul\":4153:4158   */\n      dup2\n        /* \"#utility.yul\":4135:4159   */\n      tag_67\n      jump\t// in\n    tag_144:\n        /* \"#utility.yul\":4128:4133   */\n      dup2\n        /* \"#utility.yul\":4125:4160   */\n      eq\n        /* \"#utility.yul\":4115:4178   */\n      tag_145\n      jumpi\n        /* \"#utility.yul\":4174:4175   */\n      0x00\n        /* \"#utility.yul\":4171:4172   */\n      dup1\n        /* \"#utility.yul\":4164:4176   */\n      revert\n        /* \"#utility.yul\":4115:4178   */\n    tag_145:\n        /* \"#utility.yul\":4062:4184   */\n      pop\n      jump\t// out\n        /* \"#utility.yul\":4190:4329   */\n    tag_69:\n        /* \"#utility.yul\":4236:4241   */\n      0x00\n        /* \"#utility.yul\":4274:4280   */\n      dup2\n        /* \"#utility.yul\":4261:4281   */\n      calldataload\n        /* \"#utility.yul\":4252:4281   */\n      swap1\n      pop\n        /* \"#utility.yul\":4290:4323   */\n      tag_147\n        /* \"#utility.yul\":4317:4322   */\n      dup2\n        /* \"#utility.yul\":4290:4323   */\n      tag_68\n      jump\t// in\n    tag_147:\n        /* \"#utility.yul\":4190:4329   */\n      swap3\n      swap2\n      pop\n      pop\n      jump\t// out\n        /* \"#utility.yul\":4335:4664   */\n    tag_17:\n        /* \"#utility.yul\":4394:4400   */\n      0x00\n        /* \"#utility.yul\":4443:4445   */\n      0x20\n        /* \"#utility.yul\":4431:4440   */\n      dup3\n        /* \"#utility.yul\":4422:4429   */\n      dup5\n        /* \"#utility.yul\":4418:4441   */\n      sub\n        /* \"#utility.yul\":4414:4446   */\n      slt\n        /* \"#utility.yul\":4411:4530   */\n      iszero\n      tag_149\n      jumpi\n        /* \"#utility.yul\":4449:4528   */\n      tag_150\n      tag_54\n      jump\t// in\n    tag_150:\n        /* \"#utility.yul\":4411:4530   */\n    tag_149:\n        /* \"#utility.yul\":4569:4570   */\n      0x00\n        /* \"#utility.yul\":4594:4647   */\n      tag_151\n        /* \"#utility.yul\":4639:4646   */\n      dup5\n        /* \"#utility.yul\":4630:4636   */\n      dup3\n        /* \"#utility.yul\":4619:4628   */\n      dup6\n        /* \"#utility.yul\":4615:4637   */\n      add\n        /* \"#utility.yul\":4594:4647   */\n      tag_69\n      jump\t// in\n    tag_151:\n        /* \"#utility.yul\":4584:4647   */\n      swap2\n      pop\n        /* \"#utility.yul\":4540:4657   */\n      pop\n        /* \"#utility.yul\":4335:4664   */\n      swap3\n      swap2\n      pop\n      pop\n      jump\t// out\n        /* \"#utility.yul\":4670:4788   */\n    tag_70:\n        /* \"#utility.yul\":4757:4781   */\n      tag_153\n        /* \"#utility.yul\":4775:4780   */\n      dup2\n        /* \"#utility.yul\":4757:4781   */\n      tag_67\n      jump\t// in\n    tag_153:\n        /* \"#utility.yul\":4752:4755   */\n      dup3\n        /* \"#utility.yul\":4745:4782   */\n      mstore\n        /* \"#utility.yul\":4670:4788   */\n      pop\n      pop\n      jump\t// out\n        /* \"#utility.yul\":4794:4974   */\n    tag_27:\n        /* \"#utility.yul\":4842:4919   */\n      0x4e487b7100000000000000000000000000000000000000000000000000000000\n        /* \"#utility.yul\":4839:4840   */\n      0x00\n        /* \"#utility.yul\":4832:4920   */\n      mstore\n        /* \"#utility.yul\":4939:4943   */\n      0x21\n        /* \"#utility.yul\":4936:4937   */\n      0x04\n        /* \"#utility.yul\":4929:4944   */\n      mstore\n        /* \"#utility.yul\":4963:4967   */\n      0x24\n        /* \"#utility.yul\":4960:4961   */\n      0x00\n        /* \"#utility.yul\":4953:4968   */\n      revert\n        /* \"#utility.yul\":4980:5093   */\n    tag_71:\n        /* \"#utility.yul\":5061:5062   */\n      0x03\n        /* \"#utility.yul\":5054:5059   */\n      dup2\n        /* \"#utility.yul\":5051:5063   */\n      lt\n        /* \"#utility.yul\":5041:5087   */\n      tag_156\n      jumpi\n        /* \"#utility.yul\":5067:5085   */\n      tag_157\n      tag_27\n      jump\t// in\n    tag_157:\n        /* \"#utility.yul\":5041:5087   */\n    tag_156:\n        /* \"#utility.yul\":4980:5093   */\n      pop\n      jump\t// out\n        /* \"#utility.yul\":5099:5226   */\n    tag_72:\n        /* \"#utility.yul\":5144:5151   */\n      0x00\n        /* \"#utility.yul\":5173:5178   */\n      dup2\n        /* \"#utility.yul\":5162:5178   */\n      swap1\n      pop\n        /* \"#utility.yul\":5179:5220   */\n      tag_159\n        /* \"#utility.yul\":5214:5219   */\n      dup3\n        /* \"#utility.yul\":5179:5220   */\n      tag_71\n      jump\t// in\n    tag_159:\n        /* \"#utility.yul\":5099:5226   */\n      swap2\n      swap1\n      pop\n      jump\t// out\n        /* \"#utility.yul\":5232:5359   */\n    tag_73:\n        /* \"#utility.yul\":5288:5297   */\n      0x00\n        /* \"#utility.yul\":5321:5353   */\n      tag_161\n        /* \"#utility.yul\":5347:5352   */\n      dup3\n        /* \"#utility.yul\":5321:5353   */\n      tag_72\n      jump\t// in\n    tag_161:\n        /* \"#utility.yul\":5308:5353   */\n      swap1\n      pop\n        /* \"#utility.yul\":5232:5359   */\n      swap2\n      swap1\n      pop\n      jump\t// out\n        /* \"#utility.yul\":5365:5508   */\n    tag_74:\n        /* \"#utility.yul\":5458:5501   */\n      tag_163\n        /* \"#utility.yul\":5495:5500   */\n      dup2\n        /* \"#utility.yul\":5458:5501   */\n      tag_73\n      jump\t// in\n    tag_163:\n        /* \"#utility.yul\":5453:5456   */\n      dup3\n        /* \"#utility.yul\":5446:5502   */\n      mstore\n        /* \"#utility.yul\":5365:5508   */\n      pop\n      pop\n      jump\t// out\n        /* \"#utility.yul\":5514:5613   */\n    tag_75:\n        /* \"#utility.yul\":5566:5572   */\n      0x00\n        /* \"#utility.yul\":5600:5605   */\n      dup2\n        /* \"#utility.yul\":5594:5606   */\n      mload\n        /* \"#utility.yul\":5584:5606   */\n      swap1\n      pop\n        /* \"#utility.yul\":5514:5613   */\n      swap2\n      swap1\n      pop\n      jump\t// out\n        /* \"#utility.yul\":5619:5788   */\n    tag_76:\n        /* \"#utility.yul\":5703:5714   */\n      0x00\n        /* \"#utility.yul\":5737:5743   */\n      dup3\n        /* \"#utility.yul\":5732:5735   */\n      dup3\n        /* \"#utility.yul\":5725:5744   */\n      mstore\n        /* \"#utility.yul\":5777:5781   */\n      0x20\n        /* \"#utility.yul\":5772:5775   */\n      dup3\n        /* \"#utility.yul\":5768:5782   */\n      add\n        /* \"#utility.yul\":5753:5782   */\n      swap1\n      pop\n        /* \"#utility.yul\":5619:5788   */\n      swap3\n      swap2\n      pop\n      pop\n      jump\t// out\n        /* \"#utility.yul\":5794:6040   */\n    tag_77:\n        /* \"#utility.yul\":5875:5876   */\n      0x00\n        /* \"#utility.yul\":5885:5998   */\n    tag_167:\n        /* \"#utility.yul\":5899:5905   */\n      dup4\n        /* \"#utility.yul\":5896:5897   */\n      dup2\n        /* \"#utility.yul\":5893:5906   */\n      lt\n        /* \"#utility.yul\":5885:5998   */\n      iszero\n      tag_169\n      jumpi\n        /* \"#utility.yul\":5984:5985   */\n      dup1\n        /* \"#utility.yul\":5979:5982   */\n      dup3\n        /* \"#utility.yul\":5975:5986   */\n      add\n        /* \"#utility.yul\":5969:5987   */\n      mload\n        /* \"#utility.yul\":5965:5966   */\n      dup2\n        /* \"#utility.yul\":5960:5963   */\n      dup5\n        /* \"#utility.yul\":5956:5967   */\n      add\n        /* \"#utility.yul\":5949:5988   */\n      mstore\n        /* \"#utility.yul\":5921:5923   */\n      0x20\n        /* \"#utility.yul\":5918:5919   */\n      dup2\n        /* \"#utility.yul\":5914:5924   */\n      add\n        /* \"#utility.yul\":5909:5924   */\n      swap1\n      pop\n        /* \"#utility.yul\":5885:5998   */\n      jump(tag_167)\n    tag_169:\n        /* \"#utility.yul\":6032:6033   */\n      0x00\n        /* \"#utility.yul\":6023:6029   */\n      dup5\n        /* \"#utility.yul\":6018:6021   */\n      dup5\n        /* \"#utility.yul\":6014:6030   */\n      add\n        /* \"#utility.yul\":6007:6034   */\n      mstore\n        /* \"#utility.yul\":5856:6040   */\n      pop\n        /* \"#utility.yul\":5794:6040   */\n      pop\n      pop\n      pop\n      jump\t// out\n        /* \"#utility.yul\":6046:6423   */\n    tag_78:\n        /* \"#utility.yul\":6134:6137   */\n      0x00\n        /* \"#utility.yul\":6162:6201   */\n      tag_171\n        /* \"#utility.yul\":6195:6200   */\n      dup3\n        /* \"#utility.yul\":6162:6201   */\n      tag_75\n      jump\t// in\n    tag_171:\n        /* \"#utility.yul\":6217:6288   */\n      tag_172\n        /* \"#utility.yul\":6281:6287   */\n      dup2\n        /* \"#utility.yul\":6276:6279   */\n      dup6\n        /* \"#utility.yul\":6217:6288   */\n      tag_76\n      jump\t// in\n    tag_172:\n        /* \"#utility.yul\":6210:6288   */\n      swap4\n      pop\n        /* \"#utility.yul\":6297:6362   */\n      tag_173\n        /* \"#utility.yul\":6355:6361   */\n      dup2\n        /* \"#utility.yul\":6350:6353   */\n      dup6\n        /* \"#utility.yul\":6343:6347   */\n      0x20\n        /* \"#utility.yul\":6336:6341   */\n      dup7\n        /* \"#utility.yul\":6332:6348   */\n      add\n        /* \"#utility.yul\":6297:6362   */\n      tag_77\n      jump\t// in\n    tag_173:\n        /* \"#utility.yul\":6387:6416   */\n      tag_174\n        /* \"#utility.yul\":6409:6415   */\n      dup2\n        /* \"#utility.yul\":6387:6416   */\n      tag_58\n      jump\t// in\n    tag_174:\n        /* \"#utility.yul\":6382:6385   */\n      dup5\n        /* \"#utility.yul\":6378:6417   */\n      add\n        /* \"#utility.yul\":6371:6417   */\n      swap2\n      pop\n        /* \"#utility.yul\":6138:6423   */\n      pop\n        /* \"#utility.yul\":6046:6423   */\n      swap3\n      swap2\n      pop\n      pop\n      jump\t// out\n        /* \"#utility.yul\":6429:7287   */\n    tag_23:\n        /* \"#utility.yul\":6680:6684   */\n      0x00\n        /* \"#utility.yul\":6718:6721   */\n      0xa0\n        /* \"#utility.yul\":6707:6716   */\n      dup3\n        /* \"#utility.yul\":6703:6722   */\n      add\n        /* \"#utility.yul\":6695:6722   */\n      swap1\n      pop\n        /* \"#utility.yul\":6732:6803   */\n      tag_176\n        /* \"#utility.yul\":6800:6801   */\n      0x00\n        /* \"#utility.yul\":6789:6798   */\n      dup4\n        /* \"#utility.yul\":6785:6802   */\n      add\n        /* \"#utility.yul\":6776:6782   */\n      dup9\n        /* \"#utility.yul\":6732:6803   */\n      tag_70\n      jump\t// in\n    tag_176:\n        /* \"#utility.yul\":6813:6891   */\n      tag_177\n        /* \"#utility.yul\":6887:6889   */\n      0x20\n        /* \"#utility.yul\":6876:6885   */\n      dup4\n        /* \"#utility.yul\":6872:6890   */\n      add\n        /* \"#utility.yul\":6863:6869   */\n      dup8\n        /* \"#utility.yul\":6813:6891   */\n      tag_74\n      jump\t// in\n    tag_177:\n        /* \"#utility.yul\":6938:6947   */\n      dup2\n        /* \"#utility.yul\":6932:6936   */\n      dup2\n        /* \"#utility.yul\":6928:6948   */\n      sub\n        /* \"#utility.yul\":6923:6925   */\n      0x40\n        /* \"#utility.yul\":6912:6921   */\n      dup4\n        /* \"#utility.yul\":6908:6926   */\n      add\n        /* \"#utility.yul\":6901:6949   */\n      mstore\n        /* \"#utility.yul\":6966:7044   */\n      tag_178\n        /* \"#utility.yul\":7039:7043   */\n      dup2\n        /* \"#utility.yul\":7030:7036   */\n      dup7\n        /* \"#utility.yul\":6966:7044   */\n      tag_78\n      jump\t// in\n    tag_178:\n        /* \"#utility.yul\":6958:7044   */\n      swap1\n      pop\n        /* \"#utility.yul\":7091:7100   */\n      dup2\n        /* \"#utility.yul\":7085:7089   */\n      dup2\n        /* \"#utility.yul\":7081:7101   */\n      sub\n        /* \"#utility.yul\":7076:7078   */\n      0x60\n        /* \"#utility.yul\":7065:7074   */\n      dup4\n        /* \"#utility.yul\":7061:7079   */\n      add\n        /* \"#utility.yul\":7054:7102   */\n      mstore\n        /* \"#utility.yul\":7119:7197   */\n      tag_179\n        /* \"#utility.yul\":7192:7196   */\n      dup2\n        /* \"#utility.yul\":7183:7189   */\n      dup6\n        /* \"#utility.yul\":7119:7197   */\n      tag_78\n      jump\t// in\n    tag_179:\n        /* \"#utility.yul\":7111:7197   */\n      swap1\n      pop\n        /* \"#utility.yul\":7207:7280   */\n      tag_180\n        /* \"#utility.yul\":7275:7278   */\n      0x80\n        /* \"#utility.yul\":7264:7273   */\n      dup4\n        /* \"#utility.yul\":7260:7279   */\n      add\n        /* \"#utility.yul\":7251:7257   */\n      dup5\n        /* \"#utility.yul\":7207:7280   */\n      tag_52\n      jump\t// in\n    tag_180:\n        /* \"#utility.yul\":6429:7287   */\n      swap7\n      swap6\n      pop\n      pop\n      pop\n      pop\n      pop\n      pop\n      jump\t// out\n        /* \"#utility.yul\":7293:7473   */\n    tag_79:\n        /* \"#utility.yul\":7341:7418   */\n      0x4e487b7100000000000000000000000000000000000000000000000000000000\n        /* \"#utility.yul\":7338:7339   */\n      0x00\n        /* \"#utility.yul\":7331:7419   */\n      mstore\n        /* \"#utility.yul\":7438:7442   */\n      0x22\n        /* \"#utility.yul\":7435:7436   */\n      0x04\n        /* \"#utility.yul\":7428:7443   */\n      mstore\n        /* \"#utility.yul\":7462:7466   */\n      0x24\n        /* \"#utility.yul\":7459:7460   */\n      0x00\n        /* \"#utility.yul\":7452:7467   */\n      revert\n        /* \"#utility.yul\":7479:7799   */\n    tag_41:\n        /* \"#utility.yul\":7523:7529   */\n      0x00\n        /* \"#utility.yul\":7560:7561   */\n      0x02\n        /* \"#utility.yul\":7554:7558   */\n      dup3\n        /* \"#utility.yul\":7550:7562   */\n      div\n        /* \"#utility.yul\":7540:7562   */\n      swap1\n      pop\n        /* \"#utility.yul\":7607:7608   */\n      0x01\n        /* \"#utility.yul\":7601:7605   */\n      dup3\n        /* \"#utility.yul\":7597:7609   */\n      and\n        /* \"#utility.yul\":7628:7646   */\n      dup1\n        /* \"#utility.yul\":7618:7699   */\n      tag_183\n      jumpi\n        /* \"#utility.yul\":7684:7688   */\n      0x7f\n        /* \"#utility.yul\":7676:7682   */\n      dup3\n        /* \"#utility.yul\":7672:7689   */\n      and\n        /* \"#utility.yul\":7662:7689   */\n      swap2\n      pop\n        /* \"#utility.yul\":7618:7699   */\n    tag_183:\n        /* \"#utility.yul\":7746:7748   */\n      0x20\n        /* \"#utility.yul\":7738:7744   */\n      dup3\n        /* \"#utility.yul\":7735:7749   */\n      lt\n        /* \"#utility.yul\":7715:7733   */\n      dup2\n        /* \"#utility.yul\":7712:7750   */\n      sub\n        /* \"#utility.yul\":7709:7793   */\n      tag_184\n      jumpi\n        /* \"#utility.yul\":7765:7783   */\n      tag_185\n      tag_79\n      jump\t// in\n    tag_185:\n        /* \"#utility.yul\":7709:7793   */\n    tag_184:\n        /* \"#utility.yul\":7530:7799   */\n      pop\n        /* \"#utility.yul\":7479:7799   */\n      swap2\n      swap1\n      pop\n      jump\t// out\n        /* \"#utility.yul\":7805:7946   */\n    tag_80:\n        /* \"#utility.yul\":7854:7858   */\n      0x00\n        /* \"#utility.yul\":7877:7880   */\n      dup2\n        /* \"#utility.yul\":7869:7880   */\n      swap1\n      pop\n        /* \"#utility.yul\":7900:7903   */\n      dup2\n        /* \"#utility.yul\":7897:7898   */\n      0x00\n        /* \"#utility.yul\":7890:7904   */\n      mstore\n        /* \"#utility.yul\":7934:7938   */\n      0x20\n        /* \"#utility.yul\":7931:7932   */\n      0x00\n        /* \"#utility.yul\":7921:7939   */\n      keccak256\n        /* \"#utility.yul\":7913:7939   */\n      swap1\n      pop\n        /* \"#utility.yul\":7805:7946   */\n      swap2\n      swap1\n      pop\n      jump\t// out\n        /* \"#utility.yul\":7952:8045   */\n    tag_81:\n        /* \"#utility.yul\":7989:7995   */\n      0x00\n        /* \"#utility.yul\":8036:8038   */\n      0x20\n        /* \"#utility.yul\":8031:8033   */\n      0x1f\n        /* \"#utility.yul\":8024:8029   */\n      dup4\n        /* \"#utility.yul\":8020:8034   */\n      add\n        /* \"#utility.yul\":8016:8039   */\n      div\n        /* \"#utility.yul\":8006:8039   */\n      swap1\n      pop\n        /* \"#utility.yul\":7952:8045   */\n      swap2\n      swap1\n      pop\n      jump\t// out\n        /* \"#utility.yul\":8051:8158   */\n    tag_82:\n        /* \"#utility.yul\":8095:8103   */\n      0x00\n        /* \"#utility.yul\":8145:8150   */\n      dup3\n        /* \"#utility.yul\":8139:8143   */\n      dup3\n        /* \"#utility.yul\":8135:8151   */\n      shl\n        /* \"#utility.yul\":8114:8151   */\n      swap1\n      pop\n        /* \"#utility.yul\":8051:8158   */\n      swap3\n      swap2\n      pop\n      pop\n      jump\t// out\n        /* \"#utility.yul\":8164:8557   */\n    tag_83:\n        /* \"#utility.yul\":8233:8239   */\n      0x00\n        /* \"#utility.yul\":8283:8284   */\n      0x08\n        /* \"#utility.yul\":8271:8281   */\n      dup4\n        /* \"#utility.yul\":8267:8285   */\n      mul\n        /* \"#utility.yul\":8306:8403   */\n      tag_190\n        /* \"#utility.yul\":8336:8402   */\n      0xffffffffffffffffffffffffffffffffffffffffffffffffffffffffffffffff\n        /* \"#utility.yul\":8325:8334   */\n      dup3\n        /* \"#utility.yul\":8306:8403   */\n      tag_82\n      jump\t// in\n    tag_190:\n        /* \"#utility.yul\":8424:8463   */\n      tag_191\n        /* \"#utility.yul\":8454:8462   */\n      dup7\n        /* \"#utility.yul\":8443:8452   */\n      dup4\n        /* \"#utility.yul\":8424:8463   */\n      tag_82\n      jump\t// in\n    tag_191:\n        /* \"#utility.yul\":8412:8463   */\n      swap6\n      pop\n        /* \"#utility.yul\":8496:8500   */\n      dup1\n        /* \"#utility.yul\":8492:8501   */\n      not\n        /* \"#utility.yul\":8485:8490   */\n      dup5\n        /* \"#utility.yul\":8481:8502   */\n      and\n        /* \"#utility.yul\":8472:8502   */\n      swap4\n      pop\n        /* \"#utility.yul\":8545:8549   */\n      dup1\n        /* \"#utility.yul\":8535:8543   */\n      dup7\n        /* \"#utility.yul\":8531:8550   */\n      and\n        /* \"#utility.yul\":8524:8529   */\n      dup5\n        /* \"#utility.yul\":8521:8551   */\n      or\n        /* \"#utility.yul\":8511:8551   */\n      swap3\n      pop\n        /* \"#utility.yul\":8240:8557   */\n      pop\n      pop\n        /* \"#utility.yul\":8164:8557   */\n      swap4\n      swap3\n      pop\n      pop\n      pop\n      jump\t// out\n        /* \"#utility.yul\":8563:8623   */\n    tag_84:\n        /* \"#utility.yul\":8591:8594   */\n      0x00\n        /* \"#utility.yul\":8612:8617   */\n      dup2\n        /* \"#utility.yul\":8605:8617   */\n      swap1\n      pop\n        /* \"#utility.yul\":8563:8623   */\n      swap2\n      swap1\n      pop\n      jump\t// out\n        /* \"#utility.yul\":8629:8771   */\n    tag_85:\n        /* \"#utility.yul\":8679:8688   */\n      0x00\n        /* \"#utility.yul\":8712:8765   */\n      tag_194\n        /* \"#utility.yul\":8730:8764   */\n      tag_195\n        /* \"#utility.yul\":8739:8763   */\n      tag_196\n        /* \"#utility.yul\":8757:8762   */\n      dup5\n        /* \"#utility.yul\":8739:8763   */\n      tag_51\n      jump\t// in\n    tag_196:\n        /* \"#utility.yul\":8730:8764   */\n      tag_84\n      jump\t// in\n    tag_195:\n        /* \"#utility.yul\":8712:8765   */\n      tag_51\n      jump\t// in\n    tag_194:\n        /* \"#utility.yul\":8699:8765   */\n      swap1\n      pop\n        /* \"#utility.yul\":8629:8771   */\n      swap2\n      swap1\n      pop\n      jump\t// out\n        /* \"#utility.yul\":8777:8852   */\n    tag_86:\n        /* \"#utility.yul\":8820:8823   */\n      0x00\n        /* \"#utility.yul\":8841:8846   */\n      dup2\n        /* \"#utility.yul\":8834:8846   */\n      swap1\n      pop\n        /* \"#utility.yul\":8777:8852   */\n      swap2\n      swap1\n      pop\n      jump\t// out\n        /* \"#utility.yul\":8858:9127   */\n    tag_87:\n        /* \"#utility.yul\":8968:9007   */\n      tag_199\n        /* \"#utility.yul\":8999:9006   */\n      dup4\n        /* \"#utility.yul\":8968:9007   */\n      tag_85\n      jump\t// in\n    tag_199:\n        /* \"#utility.yul\":9029:9120   */\n      tag_200\n        /* \"#utility.yul\":9078:9119   */\n      tag_201\n        /* \"#utility.yul\":9102:9118   */\n      dup3\n        /* \"#utility.yul\":9078:9119   */\n      tag_86\n      jump\t// in\n    tag_201:\n        /* \"#utility.yul\":9070:9076   */\n      dup5\n        /* \"#utility.yul\":9063:9067   */\n      dup5\n        /* \"#utility.yul\":9057:9068   */\n      sload\n        /* \"#utility.yul\":9029:9120   */\n      tag_83\n      jump\t// in\n    tag_200:\n        /* \"#utility.yul\":9023:9027   */\n      dup3\n        /* \"#utility.yul\":9016:9121   */\n      sstore\n        /* \"#utility.yul\":8934:9127   */\n      pop\n        /* \"#utility.yul\":8858:9127   */\n      pop\n      pop\n      pop\n      jump\t// out\n        /* \"#utility.yul\":9133:9206   */\n    tag_88:\n        /* \"#utility.yul\":9178:9181   */\n      0x00\n        /* \"#utility.yul\":9133:9206   */\n      swap1\n      jump\t// out\n        /* \"#utility.yul\":9212:9401   */\n    tag_89:\n        /* \"#utility.yul\":9289:9321   */\n      tag_204\n      tag_88\n      jump\t// in\n    tag_204:\n        /* \"#utility.yul\":9330:9395   */\n      tag_205\n        /* \"#utility.yul\":9388:9394   */\n      dup2\n        /* \"#utility.yul\":9380:9386   */\n      dup5\n        /* \"#utility.yul\":9374:9378   */\n      dup5\n        /* \"#utility.yul\":9330:9395   */\n      tag_87\n      jump\t// in\n    tag_205:\n        /* \"#utility.yul\":9265:9401   */\n      pop\n        /* \"#utility.yul\":9212:9401   */\n      pop\n      pop\n      jump\t// out\n        /* \"#utility.yul\":9407:9593   */\n    tag_90:\n        /* \"#utility.yul\":9467:9587   */\n    tag_207:\n        /* \"#utility.yul\":9484:9487   */\n      dup2\n        /* \"#utility.yul\":9477:9482   */\n      dup2\n        /* \"#utility.yul\":9474:9488   */\n      lt\n        /* \"#utility.yul\":9467:9587   */\n      iszero\n      tag_209\n      jumpi\n        /* \"#utility.yul\":9538:9577   */\n      tag_210\n        /* \"#utility.yul\":9575:9576   */\n      0x00\n        /* \"#utility.yul\":9568:9573   */\n      dup3\n        /* \"#utility.yul\":9538:9577   */\n      tag_89\n      jump\t// in\n    tag_210:\n        /* \"#utility.yul\":9511:9512   */\n      0x01\n        /* \"#utility.yul\":9504:9509   */\n      dup2\n        /* \"#utility.yul\":9500:9513   */\n      add\n        /* \"#utility.yul\":9491:9513   */\n      swap1\n      pop\n        /* \"#utility.yul\":9467:9587   */\n      jump(tag_207)\n    tag_209:\n        /* \"#utility.yul\":9407:9593   */\n      pop\n      pop\n      jump\t// out\n        /* \"#utility.yul\":9599:10142   */\n    tag_91:\n        /* \"#utility.yul\":9700:9702   */\n      0x1f\n        /* \"#utility.yul\":9695:9698   */\n      dup3\n        /* \"#utility.yul\":9692:9703   */\n      gt\n        /* \"#utility.yul\":9689:10135   */\n      iszero\n      tag_212\n      jumpi\n        /* \"#utility.yul\":9734:9772   */\n      tag_213\n        /* \"#utility.yul\":9766:9771   */\n      dup2\n        /* \"#utility.yul\":9734:9772   */\n      tag_80\n      jump\t// in\n    tag_213:\n        /* \"#utility.yul\":9818:9847   */\n      tag_214\n        /* \"#utility.yul\":9836:9846   */\n      dup5\n        /* \"#utility.yul\":9818:9847   */\n      tag_81\n      jump\t// in\n    tag_214:\n        /* \"#utility.yul\":9808:9816   */\n      dup2\n        /* \"#utility.yul\":9804:9848   */\n      add\n        /* \"#utility.yul\":10001:10003   */\n      0x20\n        /* \"#utility.yul\":9989:9999   */\n      dup6\n        /* \"#utility.yul\":9986:10004   */\n      lt\n        /* \"#utility.yul\":9983:10032   */\n      iszero\n      tag_215\n      jumpi\n        /* \"#utility.yul\":10022:10030   */\n      dup2\n        /* \"#utility.yul\":10007:10030   */\n      swap1\n      pop\n        /* \"#utility.yul\":9983:10032   */\n    tag_215:\n        /* \"#utility.yul\":10045:10125   */\n      tag_216\n        /* \"#utility.yul\":10101:10123   */\n      tag_217\n        /* \"#utility.yul\":10119:10122   */\n      dup6\n        /* \"#utility.yul\":10101:10123   */\n      tag_81\n      jump\t// in\n    tag_217:\n        /* \"#utility.yul\":10091:10099   */\n      dup4\n        /* \"#utility.yul\":10087:10124   */\n      add\n        /* \"#utility.yul\":10074:10085   */\n      dup3\n        /* \"#utility.yul\":10045:10125   */\n      tag_90\n      jump\t// in\n    tag_216:\n        /* \"#utility.yul\":9704:10135   */\n      pop\n      pop\n        /* \"#utility.yul\":9689:10135   */\n    tag_212:\n        /* \"#utility.yul\":9599:10142   */\n      pop\n      pop\n      pop\n      jump\t// out\n        /* \"#utility.yul\":10148:10265   */\n    tag_92:\n        /* \"#utility.yul\":10202:10210   */\n      0x00\n        /* \"#utility.yul\":10252:10257   */\n      dup3\n        /* \"#utility.yul\":10246:10250   */\n      dup3\n        /* \"#utility.yul\":10242:10258   */\n      shr\n        /* \"#utility.yul\":10221:10258   */\n      swap1\n      pop\n        /* \"#utility.yul\":10148:10265   */\n      swap3\n      swap2\n      pop\n      pop\n      jump\t// out\n        /* \"#utility.yul\":10271:10440   */\n    tag_93:\n        /* \"#utility.yul\":10315:10321   */\n      0x00\n        /* \"#utility.yul\":10348:10399   */\n      tag_220\n        /* \"#utility.yul\":10396:10397   */\n      0x00\n        /* \"#utility.yul\":10392:10398   */\n      not\n        /* \"#utility.yul\":10384:10389   */\n      dup5\n        /* \"#utility.yul\":10381:10382   */\n      0x08\n        /* \"#utility.yul\":10377:10390   */\n      mul\n        /* \"#utility.yul\":10348:10399   */\n      tag_92\n      jump\t// in\n    tag_220:\n        /* \"#utility.yul\":10344:10400   */\n      not\n        /* \"#utility.yul\":10429:10433   */\n      dup1\n        /* \"#utility.yul\":10423:10427   */\n      dup4\n        /* \"#utility.yul\":10419:10434   */\n      and\n        /* \"#utility.yul\":10409:10434   */\n      swap2\n      pop\n        /* \"#utility.yul\":10322:10440   */\n      pop\n        /* \"#utility.yul\":10271:10440   */\n      swap3\n      swap2\n      pop\n      pop\n      jump\t// out\n        /* \"#utility.yul\":10445:10740   */\n    tag_94:\n        /* \"#utility.yul\":10521:10525   */\n      0x00\n        /* \"#utility.yul\":10667:10696   */\n      tag_222\n        /* \"#utility.yul\":10692:10695   */\n      dup4\n        /* \"#utility.yul\":10686:10690   */\n      dup4\n        /* \"#utility.yul\":10667:10696   */\n      tag_93\n      jump\t// in\n    tag_222:\n        /* \"#utility.yul\":10659:10696   */\n      swap2\n      pop\n        /* \"#utility.yul\":10729:10732   */\n      dup3\n        /* \"#utility.yul\":10726:10727   */\n      0x02\n        /* \"#utility.yul\":10722:10733   */\n      mul\n        /* \"#utility.yul\":10716:10720   */\n      dup3\n        /* \"#utility.yul\":10713:10734   */\n      or\n        /* \"#utility.yul\":10705:10734   */\n      swap1\n      pop\n        /* \"#utility.yul\":10445:10740   */\n      swap3\n      swap2\n      pop\n      pop\n      jump\t// out\n        /* \"#utility.yul\":10745:12140   */\n    tag_31:\n        /* \"#utility.yul\":10862:10899   */\n      tag_224\n        /* \"#utility.yul\":10895:10898   */\n      dup3\n        /* \"#utility.yul\":10862:10899   */\n      tag_75\n      jump\t// in\n    tag_224:\n        /* \"#utility.yul\":10964:10982   */\n      0xffffffffffffffff\n        /* \"#utility.yul\":10956:10962   */\n      dup2\n        /* \"#utility.yul\":10953:10983   */\n      gt\n        /* \"#utility.yul\":10950:11006   */\n      iszero\n      tag_225\n      jumpi\n        /* \"#utility.yul\":10986:11004   */\n      tag_226\n      tag_59\n      jump\t// in\n    tag_226:\n        /* \"#utility.yul\":10950:11006   */\n    tag_225:\n        /* \"#utility.yul\":11030:11068   */\n      tag_227\n        /* \"#utility.yul\":11062:11066   */\n      dup3\n        /* \"#utility.yul\":11056:11067   */\n      sload\n        /* \"#utility.yul\":11030:11068   */\n      tag_41\n      jump\t// in\n    tag_227:\n        /* \"#utility.yul\":11115:11182   */\n      tag_228\n        /* \"#utility.yul\":11175:11181   */\n      dup3\n        /* \"#utility.yul\":11167:11173   */\n      dup3\n        /* \"#utility.yul\":11161:11165   */\n      dup6\n        /* \"#utility.yul\":11115:11182   */\n      tag_91\n      jump\t// in\n    tag_228:\n        /* \"#utility.yul\":11209:11210   */\n      0x00\n        /* \"#utility.yul\":11233:11237   */\n      0x20\n        /* \"#utility.yul\":11220:11237   */\n      swap1\n      pop\n        /* \"#utility.yul\":11265:11267   */\n      0x1f\n        /* \"#utility.yul\":11257:11263   */\n      dup4\n        /* \"#utility.yul\":11254:11268   */\n      gt\n        /* \"#utility.yul\":11282:11283   */\n      0x01\n        /* \"#utility.yul\":11277:11895   */\n      dup2\n      eq\n      tag_230\n      jumpi\n        /* \"#utility.yul\":11939:11940   */\n      0x00\n        /* \"#utility.yul\":11956:11962   */\n      dup5\n        /* \"#utility.yul\":11953:12030   */\n      iszero\n      tag_231\n      jumpi\n        /* \"#utility.yul\":12005:12014   */\n      dup3\n        /* \"#utility.yul\":12000:12003   */\n      dup8\n        /* \"#utility.yul\":11996:12015   */\n      add\n        /* \"#utility.yul\":11990:12016   */\n      mload\n        /* \"#utility.yul\":11981:12016   */\n      swap1\n      pop\n        /* \"#utility.yul\":11953:12030   */\n    tag_231:\n        /* \"#utility.yul\":12056:12123   */\n      tag_232\n        /* \"#utility.yul\":12116:12122   */\n      dup6\n        /* \"#utility.yul\":12109:12114   */\n      dup3\n        /* \"#utility.yul\":12056:12123   */\n      tag_94\n      jump\t// in\n    tag_232:\n        /* \"#utility.yul\":12050:12054   */\n      dup7\n        /* \"#utility.yul\":12043:12124   */\n      sstore\n        /* \"#utility.yul\":11912:12134   */\n      pop\n        /* \"#utility.yul\":11247:12134   */\n      jump(tag_229)\n        /* \"#utility.yul\":11277:11895   */\n    tag_230:\n        /* \"#utility.yul\":11329:11333   */\n      0x1f\n        /* \"#utility.yul\":11325:11334   */\n      not\n        /* \"#utility.yul\":11317:11323   */\n      dup5\n        /* \"#utility.yul\":11313:11335   */\n      and\n        /* \"#utility.yul\":11363:11400   */\n      tag_233\n        /* \"#utility.yul\":11395:11399   */\n      dup7\n        /* \"#utility.yul\":11363:11400   */\n      tag_80\n      jump\t// in\n    tag_233:\n        /* \"#utility.yul\":11422:11423   */\n      0x00\n        /* \"#utility.yul\":11436:11644   */\n    tag_234:\n        /* \"#utility.yul\":11450:11457   */\n      dup3\n        /* \"#utility.yul\":11447:11448   */\n      dup2\n        /* \"#utility.yul\":11444:11458   */\n      lt\n        /* \"#utility.yul\":11436:11644   */\n      iszero\n      tag_236\n      jumpi\n        /* \"#utility.yul\":11529:11538   */\n      dup5\n        /* \"#utility.yul\":11524:11527   */\n      dup10\n        /* \"#utility.yul\":11520:11539   */\n      add\n        /* \"#utility.yul\":11514:11540   */\n      mload\n        /* \"#utility.yul\":11506:11512   */\n      dup3\n        /* \"#utility.yul\":11499:11541   */\n      sstore\n        /* \"#utility.yul\":11580:11581   */\n      0x01\n        /* \"#utility.yul\":11572:11578   */\n      dup3\n        /* \"#utility.yul\":11568:11582   */\n      add\n        /* \"#utility.yul\":11558:11582   */\n      swap2\n      pop\n        /* \"#utility.yul\":11627:11629   */\n      0x20\n        /* \"#utility.yul\":11616:11625   */\n      dup6\n        /* \"#utility.yul\":11612:11630   */\n      add\n        /* \"#utility.yul\":11599:11630   */\n      swap5\n      pop\n        /* \"#utility.yul\":11473:11477   */\n      0x20\n        /* \"#utility.yul\":11470:11471   */\n      dup2\n        /* \"#utility.yul\":11466:11478   */\n      add\n        /* \"#utility.yul\":11461:11478   */\n      swap1\n      pop\n        /* \"#utility.yul\":11436:11644   */\n      jump(tag_234)\n    tag_236:\n        /* \"#utility.yul\":11672:11678   */\n      dup7\n        /* \"#utility.yul\":11663:11670   */\n      dup4\n        /* \"#utility.yul\":11660:11679   */\n      lt\n        /* \"#utility.yul\":11657:11836   */\n      iszero\n      tag_237\n      jumpi\n        /* \"#utility.yul\":11730:11739   */\n      dup5\n        /* \"#utility.yul\":11725:11728   */\n      dup10\n        /* \"#utility.yul\":11721:11740   */\n      add\n        /* \"#utility.yul\":11715:11741   */\n      mload\n        /* \"#utility.yul\":11773:11821   */\n      tag_238\n        /* \"#utility.yul\":11815:11819   */\n      0x1f\n        /* \"#utility.yul\":11807:11813   */\n      dup10\n        /* \"#utility.yul\":11803:11820   */\n      and\n        /* \"#utility.yul\":11792:11801   */\n      dup3\n        /* \"#utility.yul\":11773:11821   */\n      tag_93\n      jump\t// in\n    tag_238:\n        /* \"#utility.yul\":11765:11771   */\n      dup4\n        /* \"#utility.yul\":11758:11822   */\n      sstore\n        /* \"#utility.yul\":11680:11836   */\n      pop\n        /* \"#utility.yul\":11657:11836   */\n    tag_237:\n        /* \"#utility.yul\":11882:11883   */\n      0x01\n        /* \"#utility.yul\":11878:11879   */\n      0x02\n        /* \"#utility.yul\":11870:11876   */\n      dup9\n        /* \"#utility.yul\":11866:11880   */\n      mul\n        /* \"#utility.yul\":11862:11884   */\n      add\n        /* \"#utility.yul\":11856:11860   */\n      dup9\n        /* \"#utility.yul\":11849:11885   */\n      sstore\n        /* \"#utility.yul\":11284:11895   */\n      pop\n      pop\n      pop\n        /* \"#utility.yul\":11247:12134   */\n    tag_229:\n      pop\n        /* \"#utility.yul\":10837:12140   */\n      pop\n      pop\n      pop\n        /* \"#utility.yul\":10745:12140   */\n      pop\n      pop\n      jump\t// out\n        /* \"#utility.yul\":12146:12326   */\n    tag_95:\n        /* \"#utility.yul\":12194:12271   */\n      0x4e487b7100000000000000000000000000000000000000000000000000000000\n        /* \"#utility.yul\":12191:12192   */\n      0x00\n        /* \"#utility.yul\":12184:12272   */\n      mstore\n        /* \"#utility.yul\":12291:12295   */\n      0x11\n        /* \"#utility.yul\":12288:12289   */\n      0x04\n        /* \"#utility.yul\":12281:12296   */\n      mstore\n        /* \"#utility.yul\":12315:12319   */\n      0x24\n        /* \"#utility.yul\":12312:12313   */\n      0x00\n        /* \"#utility.yul\":12305:12320   */\n      revert\n        /* \"#utility.yul\":12332:12523   */\n    tag_34:\n        /* \"#utility.yul\":12372:12375   */\n      0x00\n        /* \"#utility.yul\":12391:12411   */\n      tag_241\n        /* \"#utility.yul\":12409:12410   */\n      dup3\n        /* \"#utility.yul\":12391:12411   */\n      tag_51\n      jump\t// in\n    tag_241:\n        /* \"#utility.yul\":12386:12411   */\n      swap2\n      pop\n        /* \"#utility.yul\":12425:12445   */\n      tag_242\n        /* \"#utility.yul\":12443:12444   */\n      dup4\n        /* \"#utility.yul\":12425:12445   */\n      tag_51\n      jump\t// in\n    tag_242:\n        /* \"#utility.yul\":12420:12445   */\n      swap3\n      pop\n        /* \"#utility.yul\":12468:12469   */\n      dup3\n        /* \"#utility.yul\":12465:12466   */\n      dup3\n        /* \"#utility.yul\":12461:12470   */\n      add\n        /* \"#utility.yul\":12454:12470   */\n      swap1\n      pop\n        /* \"#utility.yul\":12489:12492   */\n      dup1\n        /* \"#utility.yul\":12486:12487   */\n      dup3\n        /* \"#utility.yul\":12483:12493   */\n      gt\n        /* \"#utility.yul\":12480:12516   */\n      iszero\n      tag_243\n      jumpi\n        /* \"#utility.yul\":12496:12514   */\n      tag_244\n      tag_95\n      jump\t// in\n    tag_244:\n        /* \"#utility.yul\":12480:12516   */\n    tag_243:\n        /* \"#utility.yul\":12332:12523   */\n      swap3\n      swap2\n      pop\n      pop\n      jump\t// out\n\n    auxdata: 0xa2646970667358221220f92ced111dabf91f3fdace7ad61501b21df305472f88dbd2b281cc05369a144464736f6c63430008120033\n}\n",
				"bytecode": {
					"linkReferences": {},
					"object": "60806040526000805534801561001457600080fd5b50610baa806100246000396000f3fe608060405234801561001057600080fd5b506004361061004c5760003560e01c8063302bcc57146100515780635cb119a91461006f5780638ddf0f7d1461008b578063e2eb41ff146100a7575b600080fd5b6100596100db565b6040516100669190610455565b60405180910390f35b610089600480360381019061008491906105ca565b6100e1565b005b6100a560048036038101906100a091906106a0565b61023d565b005b6100c160048036038101906100bc91906106a0565b6102c9565b6040516100d29594939291906107d2565b60405180910390f35b60005481565b6040518060a001604052803373ffffffffffffffffffffffffffffffffffffffff1681526020016000600281111561011c5761011b6106dc565b5b815260200183815260200182815260200142815250600160003373ffffffffffffffffffffffffffffffffffffffff1673ffffffffffffffffffffffffffffffffffffffff16815260200190815260200160002060008201518160000160006101000a81548173ffffffffffffffffffffffffffffffffffffffff021916908373ffffffffffffffffffffffffffffffffffffffff16021790555060208201518160000160146101000a81548160ff021916908360028111156101e2576101e16106dc565b5b021790555060408201518160010190816101fc9190610a3f565b5060608201518160020190816102129190610a3f565b506080820151816003015590505060016000808282546102329190610b40565b925050819055505050565b6000600160008373ffffffffffffffffffffffffffffffffffffffff1673ffffffffffffffffffffffffffffffffffffffff1681526020019081526020016000209050600f81600301546102919190610b40565b42106102c55760018160000160146101000a81548160ff021916908360028111156102bf576102be6106dc565b5b02179055505b5050565b60016020528060005260406000206000915090508060000160009054906101000a900473ffffffffffffffffffffffffffffffffffffffff16908060000160149054906101000a900460ff169080600101805461032590610862565b80601f016020809104026020016040519081016040528092919081815260200182805461035190610862565b801561039e5780601f106103735761010080835404028352916020019161039e565b820191906000526020600020905b81548152906001019060200180831161038157829003601f168201915b5050505050908060020180546103b390610862565b80601f01602080910402602001604051908101604052809291908181526020018280546103df90610862565b801561042c5780601f106104015761010080835404028352916020019161042c565b820191906000526020600020905b81548152906001019060200180831161040f57829003601f168201915b5050505050908060030154905085565b6000819050919050565b61044f8161043c565b82525050565b600060208201905061046a6000830184610446565b92915050565b6000604051905090565b600080fd5b600080fd5b600080fd5b600080fd5b6000601f19601f8301169050919050565b7f4e487b7100000000000000000000000000000000000000000000000000000000600052604160045260246000fd5b6104d78261048e565b810181811067ffffffffffffffff821117156104f6576104f561049f565b5b80604052505050565b6000610509610470565b905061051582826104ce565b919050565b600067ffffffffffffffff8211156105355761053461049f565b5b61053e8261048e565b9050602081019050919050565b82818337600083830152505050565b600061056d6105688461051a565b6104ff565b90508281526020810184848401111561058957610588610489565b5b61059484828561054b565b509392505050565b600082601f8301126105b1576105b0610484565b5b81356105c184826020860161055a565b91505092915050565b600080604083850312156105e1576105e061047a565b5b600083013567ffffffffffffffff8111156105ff576105fe61047f565b5b61060b8582860161059c565b925050602083013567ffffffffffffffff81111561062c5761062b61047f565b5b6106388582860161059c565b9150509250929050565b600073ffffffffffffffffffffffffffffffffffffffff82169050919050565b600061066d82610642565b9050919050565b61067d81610662565b811461068857600080fd5b50565b60008135905061069a81610674565b92915050565b6000602082840312156106b6576106b561047a565b5b60006106c48482850161068b565b91505092915050565b6106d681610662565b82525050565b7f4e487b7100000000000000000000000000000000000000000000000000000000600052602160045260246000fd5b6003811061071c5761071b6106dc565b5b50565b600081905061072d8261070b565b919050565b600061073d8261071f565b9050919050565b61074d81610732565b82525050565b600081519050919050565b600082825260208201905092915050565b60005b8381101561078d578082015181840152602081019050610772565b60008484015250505050565b60006107a482610753565b6107ae818561075e565b93506107be81856020860161076f565b6107c78161048e565b840191505092915050565b600060a0820190506107e760008301886106cd565b6107f46020830187610744565b81810360408301526108068186610799565b9050818103606083015261081a8185610799565b90506108296080830184610446565b9695505050505050565b7f4e487b7100000000000000000000000000000000000000000000000000000000600052602260045260246000fd5b6000600282049050600182168061087a57607f821691505b60208210810361088d5761088c610833565b5b50919050565b60008190508160005260206000209050919050565b60006020601f8301049050919050565b600082821b905092915050565b6000600883026108f57fffffffffffffffffffffffffffffffffffffffffffffffffffffffffffffffff826108b8565b6108ff86836108b8565b95508019841693508086168417925050509392505050565b6000819050919050565b600061093c6109376109328461043c565b610917565b61043c565b9050919050565b6000819050919050565b61095683610921565b61096a61096282610943565b8484546108c5565b825550505050565b600090565b61097f610972565b61098a81848461094d565b505050565b5b818110156109ae576109a3600082610977565b600181019050610990565b5050565b601f8211156109f3576109c481610893565b6109cd846108a8565b810160208510156109dc578190505b6109f06109e8856108a8565b83018261098f565b50505b505050565b600082821c905092915050565b6000610a16600019846008026109f8565b1980831691505092915050565b6000610a2f8383610a05565b9150826002028217905092915050565b610a4882610753565b67ffffffffffffffff811115610a6157610a6061049f565b5b610a6b8254610862565b610a768282856109b2565b600060209050601f831160018114610aa95760008415610a97578287015190505b610aa18582610a23565b865550610b09565b601f198416610ab786610893565b60005b82811015610adf57848901518255600182019150602085019450602081019050610aba565b86831015610afc5784890151610af8601f891682610a05565b8355505b6001600288020188555050505b505050505050565b7f4e487b7100000000000000000000000000000000000000000000000000000000600052601160045260246000fd5b6000610b4b8261043c565b9150610b568361043c565b9250828201905080821115610b6e57610b6d610b11565b5b9291505056fea2646970667358221220f92ced111dabf91f3fdace7ad61501b21df305472f88dbd2b281cc05369a144464736f6c63430008120033",
					"opcodes": "PUSH1 0x80 PUSH1 0x40 MSTORE PUSH1 0x0 DUP1 SSTORE CALLVALUE DUP1 ISZERO PUSH2 0x14 JUMPI PUSH1 0x0 DUP1 REVERT JUMPDEST POP PUSH2 0xBAA DUP1 PUSH2 0x24 PUSH1 0x0 CODECOPY PUSH1 0x0 RETURN INVALID PUSH1 0x80 PUSH1 0x40 MSTORE CALLVALUE DUP1 ISZERO PUSH2 0x10 JUMPI PUSH1 0x0 DUP1 REVERT JUMPDEST POP PUSH1 0x4 CALLDATASIZE LT PUSH2 0x4C JUMPI PUSH1 0x0 CALLDATALOAD PUSH1 0xE0 SHR DUP1 PUSH4 0x302BCC57 EQ PUSH2 0x51 JUMPI DUP1 PUSH4 0x5CB119A9 EQ PUSH2 0x6F JUMPI DUP1 PUSH4 0x8DDF0F7D EQ PUSH2 0x8B JUMPI DUP1 PUSH4 0xE2EB41FF EQ PUSH2 0xA7 JUMPI JUMPDEST PUSH1 0x0 DUP1 REVERT JUMPDEST PUSH2 0x59 PUSH2 0xDB JUMP JUMPDEST PUSH1 0x40 MLOAD PUSH2 0x66 SWAP2 SWAP1 PUSH2 0x455 JUMP JUMPDEST PUSH1 0x40 MLOAD DUP1 SWAP2 SUB SWAP1 RETURN JUMPDEST PUSH2 0x89 PUSH1 0x4 DUP1 CALLDATASIZE SUB DUP2 ADD SWAP1 PUSH2 0x84 SWAP2 SWAP1 PUSH2 0x5CA JUMP JUMPDEST PUSH2 0xE1 JUMP JUMPDEST STOP JUMPDEST PUSH2 0xA5 PUSH1 0x4 DUP1 CALLDATASIZE SUB DUP2 ADD SWAP1 PUSH2 0xA0 SWAP2 SWAP1 PUSH2 0x6A0 JUMP JUMPDEST PUSH2 0x23D JUMP JUMPDEST STOP JUMPDEST PUSH2 0xC1 PUSH1 0x4 DUP1 CALLDATASIZE SUB DUP2 ADD SWAP1 PUSH2 0xBC SWAP2 SWAP1 PUSH2 0x6A0 JUMP JUMPDEST PUSH2 0x2C9 JUMP JUMPDEST PUSH1 0x40 MLOAD PUSH2 0xD2 SWAP6 SWAP5 SWAP4 SWAP3 SWAP2 SWAP1 PUSH2 0x7D2 JUMP JUMPDEST PUSH1 0x40 MLOAD DUP1 SWAP2 SUB SWAP1 RETURN JUMPDEST PUSH1 0x0 SLOAD DUP2 JUMP JUMPDEST PUSH1 0x40 MLOAD DUP1 PUSH1 0xA0 ADD PUSH1 0x40 MSTORE DUP1 CALLER PUSH20 0xFFFFFFFFFFFFFFFFFFFFFFFFFFFFFFFFFFFFFFFF AND DUP2 MSTORE PUSH1 0x20 ADD PUSH1 0x0 PUSH1 0x2 DUP2 GT ISZERO PUSH2 0x11C JUMPI PUSH2 0x11B PUSH2 0x6DC JUMP JUMPDEST JUMPDEST DUP2 MSTORE PUSH1 0x20 ADD DUP4 DUP2 MSTORE PUSH1 0x20 ADD DUP3 DUP2 MSTORE PUSH1 0x20 ADD TIMESTAMP DUP2 MSTORE POP PUSH1 0x1 PUSH1 0x0 CALLER PUSH20 0xFFFFFFFFFFFFFFFFFFFFFFFFFFFFFFFFFFFFFFFF AND PUSH20 0xFFFFFFFFFFFFFFFFFFFFFFFFFFFFFFFFFFFFFFFF AND DUP2 MSTORE PUSH1 0x20 ADD SWAP1 DUP2 MSTORE PUSH1 0x20 ADD PUSH1 0x0 KECCAK256 PUSH1 0x0 DUP3 ADD MLOAD DUP2 PUSH1 0x0 ADD PUSH1 0x0 PUSH2 0x100 EXP DUP2 SLOAD DUP2 PUSH20 0xFFFFFFFFFFFFFFFFFFFFFFFFFFFFFFFFFFFFFFFF MUL NOT AND SWAP1 DUP4 PUSH20 0xFFFFFFFFFFFFFFFFFFFFFFFFFFFFFFFFFFFFFFFF AND MUL OR SWAP1 SSTORE POP PUSH1 0x20 DUP3 ADD MLOAD DUP2 PUSH1 0x0 ADD PUSH1 0x14 PUSH2 0x100 EXP DUP2 SLOAD DUP2 PUSH1 0xFF MUL NOT AND SWAP1 DUP4 PUSH1 0x2 DUP2 GT ISZERO PUSH2 0x1E2 JUMPI PUSH2 0x1E1 PUSH2 0x6DC JUMP JUMPDEST JUMPDEST MUL OR SWAP1 SSTORE POP PUSH1 0x40 DUP3 ADD MLOAD DUP2 PUSH1 0x1 ADD SWAP1 DUP2 PUSH2 0x1FC SWAP2 SWAP1 PUSH2 0xA3F JUMP JUMPDEST POP PUSH1 0x60 DUP3 ADD MLOAD DUP2 PUSH1 0x2 ADD SWAP1 DUP2 PUSH2 0x212 SWAP2 SWAP1 PUSH2 0xA3F JUMP JUMPDEST POP PUSH1 0x80 DUP3 ADD MLOAD DUP2 PUSH1 0x3 ADD SSTORE SWAP1 POP POP PUSH1 0x1 PUSH1 0x0 DUP1 DUP3 DUP3 SLOAD PUSH2 0x232 SWAP2 SWAP1 PUSH2 0xB40 JUMP JUMPDEST SWAP3 POP POP DUP2 SWAP1 SSTORE POP POP POP JUMP JUMPDEST PUSH1 0x0 PUSH1 0x1 PUSH1 0x0 DUP4 PUSH20 0xFFFFFFFFFFFFFFFFFFFFFFFFFFFFFFFFFFFFFFFF AND PUSH20 0xFFFFFFFFFFFFFFFFFFFFFFFFFFFFFFFFFFFFFFFF AND DUP2 MSTORE PUSH1 0x20 ADD SWAP1 DUP2 MSTORE PUSH1 0x20 ADD PUSH1 0x0 KECCAK256 SWAP1 POP PUSH1 0xF DUP2 PUSH1 0x3 ADD SLOAD PUSH2 0x291 SWAP2 SWAP1 PUSH2 0xB40 JUMP JUMPDEST TIMESTAMP LT PUSH2 0x2C5 JUMPI PUSH1 0x1 DUP2 PUSH1 0x0 ADD PUSH1 0x14 PUSH2 0x100 EXP DUP2 SLOAD DUP2 PUSH1 0xFF MUL NOT AND SWAP1 DUP4 PUSH1 0x2 DUP2 GT ISZERO PUSH2 0x2BF JUMPI PUSH2 0x2BE PUSH2 0x6DC JUMP JUMPDEST JUMPDEST MUL OR SWAP1 SSTORE POP JUMPDEST POP POP JUMP JUMPDEST PUSH1 0x1 PUSH1 0x20 MSTORE DUP1 PUSH1 0x0 MSTORE PUSH1 0x40 PUSH1 0x0 KECCAK256 PUSH1 0x0 SWAP2 POP SWAP1 POP DUP1 PUSH1 0x0 ADD PUSH1 0x0 SWAP1 SLOAD SWAP1 PUSH2 0x100 EXP SWAP1 DIV PUSH20 0xFFFFFFFFFFFFFFFFFFFFFFFFFFFFFFFFFFFFFFFF AND SWAP1 DUP1 PUSH1 0x0 ADD PUSH1 0x14 SWAP1 SLOAD SWAP1 PUSH2 0x100 EXP SWAP1 DIV PUSH1 0xFF AND SWAP1 DUP1 PUSH1 0x1 ADD DUP1 SLOAD PUSH2 0x325 SWAP1 PUSH2 0x862 JUMP JUMPDEST DUP1 PUSH1 0x1F ADD PUSH1 0x20 DUP1 SWAP2 DIV MUL PUSH1 0x20 ADD PUSH1 0x40 MLOAD SWAP1 DUP2 ADD PUSH1 0x40 MSTORE DUP1 SWAP3 SWAP2 SWAP1 DUP2 DUP2 MSTORE PUSH1 0x20 ADD DUP3 DUP1 SLOAD PUSH2 0x351 SWAP1 PUSH2 0x862 JUMP JUMPDEST DUP1 ISZERO PUSH2 0x39E JUMPI DUP1 PUSH1 0x1F LT PUSH2 0x373 JUMPI PUSH2 0x100 DUP1 DUP4 SLOAD DIV MUL DUP4 MSTORE SWAP2 PUSH1 0x20 ADD SWAP2 PUSH2 0x39E JUMP JUMPDEST DUP3 ADD SWAP2 SWAP1 PUSH1 0x0 MSTORE PUSH1 0x20 PUSH1 0x0 KECCAK256 SWAP1 JUMPDEST DUP2 SLOAD DUP2 MSTORE SWAP1 PUSH1 0x1 ADD SWAP1 PUSH1 0x20 ADD DUP1 DUP4 GT PUSH2 0x381 JUMPI DUP3 SWAP1 SUB PUSH1 0x1F AND DUP3 ADD SWAP2 JUMPDEST POP POP POP POP POP SWAP1 DUP1 PUSH1 0x2 ADD DUP1 SLOAD PUSH2 0x3B3 SWAP1 PUSH2 0x862 JUMP JUMPDEST DUP1 PUSH1 0x1F ADD PUSH1 0x20 DUP1 SWAP2 DIV MUL PUSH1 0x20 ADD PUSH1 0x40 MLOAD SWAP1 DUP2 ADD PUSH1 0x40 MSTORE DUP1 SWAP3 SWAP2 SWAP1 DUP2 DUP2 MSTORE PUSH1 0x20 ADD DUP3 DUP1 SLOAD PUSH2 0x3DF SWAP1 PUSH2 0x862 JUMP JUMPDEST DUP1 ISZERO PUSH2 0x42C JUMPI DUP1 PUSH1 0x1F LT PUSH2 0x401 JUMPI PUSH2 0x100 DUP1 DUP4 SLOAD DIV MUL DUP4 MSTORE SWAP2 PUSH1 0x20 ADD SWAP2 PUSH2 0x42C JUMP JUMPDEST DUP3 ADD SWAP2 SWAP1 PUSH1 0x0 MSTORE PUSH1 0x20 PUSH1 0x0 KECCAK256 SWAP1 JUMPDEST DUP2 SLOAD DUP2 MSTORE SWAP1 PUSH1 0x1 ADD SWAP1 PUSH1 0x20 ADD DUP1 DUP4 GT PUSH2 0x40F JUMPI DUP3 SWAP1 SUB PUSH1 0x1F AND DUP3 ADD SWAP2 JUMPDEST POP POP POP POP POP SWAP1 DUP1 PUSH1 0x3 ADD SLOAD SWAP1 POP DUP6 JUMP JUMPDEST PUSH1 0x0 DUP2 SWAP1 POP SWAP2 SWAP1 POP JUMP JUMPDEST PUSH2 0x44F DUP2 PUSH2 0x43C JUMP JUMPDEST DUP3 MSTORE POP POP JUMP JUMPDEST PUSH1 0x0 PUSH1 0x20 DUP3 ADD SWAP1 POP PUSH2 0x46A PUSH1 0x0 DUP4 ADD DUP5 PUSH2 0x446 JUMP JUMPDEST SWAP3 SWAP2 POP POP JUMP JUMPDEST PUSH1 0x0 PUSH1 0x40 MLOAD SWAP1 POP SWAP1 JUMP JUMPDEST PUSH1 0x0 DUP1 REVERT JUMPDEST PUSH1 0x0 DUP1 REVERT JUMPDEST PUSH1 0x0 DUP1 REVERT JUMPDEST PUSH1 0x0 DUP1 REVERT JUMPDEST PUSH1 0x0 PUSH1 0x1F NOT PUSH1 0x1F DUP4 ADD AND SWAP1 POP SWAP2 SWAP1 POP JUMP JUMPDEST PUSH32 0x4E487B7100000000000000000000000000000000000000000000000000000000 PUSH1 0x0 MSTORE PUSH1 0x41 PUSH1 0x4 MSTORE PUSH1 0x24 PUSH1 0x0 REVERT JUMPDEST PUSH2 0x4D7 DUP3 PUSH2 0x48E JUMP JUMPDEST DUP2 ADD DUP2 DUP2 LT PUSH8 0xFFFFFFFFFFFFFFFF DUP3 GT OR ISZERO PUSH2 0x4F6 JUMPI PUSH2 0x4F5 PUSH2 0x49F JUMP JUMPDEST JUMPDEST DUP1 PUSH1 0x40 MSTORE POP POP POP JUMP JUMPDEST PUSH1 0x0 PUSH2 0x509 PUSH2 0x470 JUMP JUMPDEST SWAP1 POP PUSH2 0x515 DUP3 DUP3 PUSH2 0x4CE JUMP JUMPDEST SWAP2 SWAP1 POP JUMP JUMPDEST PUSH1 0x0 PUSH8 0xFFFFFFFFFFFFFFFF DUP3 GT ISZERO PUSH2 0x535 JUMPI PUSH2 0x534 PUSH2 0x49F JUMP JUMPDEST JUMPDEST PUSH2 0x53E DUP3 PUSH2 0x48E JUMP JUMPDEST SWAP1 POP PUSH1 0x20 DUP2 ADD SWAP1 POP SWAP2 SWAP1 POP JUMP JUMPDEST DUP3 DUP2 DUP4 CALLDATACOPY PUSH1 0x0 DUP4 DUP4 ADD MSTORE POP POP POP JUMP JUMPDEST PUSH1 0x0 PUSH2 0x56D PUSH2 0x568 DUP5 PUSH2 0x51A JUMP JUMPDEST PUSH2 0x4FF JUMP JUMPDEST SWAP1 POP DUP3 DUP2 MSTORE PUSH1 0x20 DUP2 ADD DUP5 DUP5 DUP5 ADD GT ISZERO PUSH2 0x589 JUMPI PUSH2 0x588 PUSH2 0x489 JUMP JUMPDEST JUMPDEST PUSH2 0x594 DUP5 DUP3 DUP6 PUSH2 0x54B JUMP JUMPDEST POP SWAP4 SWAP3 POP POP POP JUMP JUMPDEST PUSH1 0x0 DUP3 PUSH1 0x1F DUP4 ADD SLT PUSH2 0x5B1 JUMPI PUSH2 0x5B0 PUSH2 0x484 JUMP JUMPDEST JUMPDEST DUP2 CALLDATALOAD PUSH2 0x5C1 DUP5 DUP3 PUSH1 0x20 DUP7 ADD PUSH2 0x55A JUMP JUMPDEST SWAP2 POP POP SWAP3 SWAP2 POP POP JUMP JUMPDEST PUSH1 0x0 DUP1 PUSH1 0x40 DUP4 DUP6 SUB SLT ISZERO PUSH2 0x5E1 JUMPI PUSH2 0x5E0 PUSH2 0x47A JUMP JUMPDEST JUMPDEST PUSH1 0x0 DUP4 ADD CALLDATALOAD PUSH8 0xFFFFFFFFFFFFFFFF DUP2 GT ISZERO PUSH2 0x5FF JUMPI PUSH2 0x5FE PUSH2 0x47F JUMP JUMPDEST JUMPDEST PUSH2 0x60B DUP6 DUP3 DUP7 ADD PUSH2 0x59C JUMP JUMPDEST SWAP3 POP POP PUSH1 0x20 DUP4 ADD CALLDATALOAD PUSH8 0xFFFFFFFFFFFFFFFF DUP2 GT ISZERO PUSH2 0x62C JUMPI PUSH2 0x62B PUSH2 0x47F JUMP JUMPDEST JUMPDEST PUSH2 0x638 DUP6 DUP3 DUP7 ADD PUSH2 0x59C JUMP JUMPDEST SWAP2 POP POP SWAP3 POP SWAP3 SWAP1 POP JUMP JUMPDEST PUSH1 0x0 PUSH20 0xFFFFFFFFFFFFFFFFFFFFFFFFFFFFFFFFFFFFFFFF DUP3 AND SWAP1 POP SWAP2 SWAP1 POP JUMP JUMPDEST PUSH1 0x0 PUSH2 0x66D DUP3 PUSH2 0x642 JUMP JUMPDEST SWAP1 POP SWAP2 SWAP1 POP JUMP JUMPDEST PUSH2 0x67D DUP2 PUSH2 0x662 JUMP JUMPDEST DUP2 EQ PUSH2 0x688 JUMPI PUSH1 0x0 DUP1 REVERT JUMPDEST POP JUMP JUMPDEST PUSH1 0x0 DUP2 CALLDATALOAD SWAP1 POP PUSH2 0x69A DUP2 PUSH2 0x674 JUMP JUMPDEST SWAP3 SWAP2 POP POP JUMP JUMPDEST PUSH1 0x0 PUSH1 0x20 DUP3 DUP5 SUB SLT ISZERO PUSH2 0x6B6 JUMPI PUSH2 0x6B5 PUSH2 0x47A JUMP JUMPDEST JUMPDEST PUSH1 0x0 PUSH2 0x6C4 DUP5 DUP3 DUP6 ADD PUSH2 0x68B JUMP JUMPDEST SWAP2 POP POP SWAP3 SWAP2 POP POP JUMP JUMPDEST PUSH2 0x6D6 DUP2 PUSH2 0x662 JUMP JUMPDEST DUP3 MSTORE POP POP JUMP JUMPDEST PUSH32 0x4E487B7100000000000000000000000000000000000000000000000000000000 PUSH1 0x0 MSTORE PUSH1 0x21 PUSH1 0x4 MSTORE PUSH1 0x24 PUSH1 0x0 REVERT JUMPDEST PUSH1 0x3 DUP2 LT PUSH2 0x71C JUMPI PUSH2 0x71B PUSH2 0x6DC JUMP JUMPDEST JUMPDEST POP JUMP JUMPDEST PUSH1 0x0 DUP2 SWAP1 POP PUSH2 0x72D DUP3 PUSH2 0x70B JUMP JUMPDEST SWAP2 SWAP1 POP JUMP JUMPDEST PUSH1 0x0 PUSH2 0x73D DUP3 PUSH2 0x71F JUMP JUMPDEST SWAP1 POP SWAP2 SWAP1 POP JUMP JUMPDEST PUSH2 0x74D DUP2 PUSH2 0x732 JUMP JUMPDEST DUP3 MSTORE POP POP JUMP JUMPDEST PUSH1 0x0 DUP2 MLOAD SWAP1 POP SWAP2 SWAP1 POP JUMP JUMPDEST PUSH1 0x0 DUP3 DUP3 MSTORE PUSH1 0x20 DUP3 ADD SWAP1 POP SWAP3 SWAP2 POP POP JUMP JUMPDEST PUSH1 0x0 JUMPDEST DUP4 DUP2 LT ISZERO PUSH2 0x78D JUMPI DUP1 DUP3 ADD MLOAD DUP2 DUP5 ADD MSTORE PUSH1 0x20 DUP2 ADD SWAP1 POP PUSH2 0x772 JUMP JUMPDEST PUSH1 0x0 DUP5 DUP5 ADD MSTORE POP POP POP POP JUMP JUMPDEST PUSH1 0x0 PUSH2 0x7A4 DUP3 PUSH2 0x753 JUMP JUMPDEST PUSH2 0x7AE DUP2 DUP6 PUSH2 0x75E JUMP JUMPDEST SWAP4 POP PUSH2 0x7BE DUP2 DUP6 PUSH1 0x20 DUP7 ADD PUSH2 0x76F JUMP JUMPDEST PUSH2 0x7C7 DUP2 PUSH2 0x48E JUMP JUMPDEST DUP5 ADD SWAP2 POP POP SWAP3 SWAP2 POP POP JUMP JUMPDEST PUSH1 0x0 PUSH1 0xA0 DUP3 ADD SWAP1 POP PUSH2 0x7E7 PUSH1 0x0 DUP4 ADD DUP9 PUSH2 0x6CD JUMP JUMPDEST PUSH2 0x7F4 PUSH1 0x20 DUP4 ADD DUP8 PUSH2 0x744 JUMP JUMPDEST DUP2 DUP2 SUB PUSH1 0x40 DUP4 ADD MSTORE PUSH2 0x806 DUP2 DUP7 PUSH2 0x799 JUMP JUMPDEST SWAP1 POP DUP2 DUP2 SUB PUSH1 0x60 DUP4 ADD MSTORE PUSH2 0x81A DUP2 DUP6 PUSH2 0x799 JUMP JUMPDEST SWAP1 POP PUSH2 0x829 PUSH1 0x80 DUP4 ADD DUP5 PUSH2 0x446 JUMP JUMPDEST SWAP7 SWAP6 POP POP POP POP POP POP JUMP JUMPDEST PUSH32 0x4E487B7100000000000000000000000000000000000000000000000000000000 PUSH1 0x0 MSTORE PUSH1 0x22 PUSH1 0x4 MSTORE PUSH1 0x24 PUSH1 0x0 REVERT JUMPDEST PUSH1 0x0 PUSH1 0x2 DUP3 DIV SWAP1 POP PUSH1 0x1 DUP3 AND DUP1 PUSH2 0x87A JUMPI PUSH1 0x7F DUP3 AND SWAP2 POP JUMPDEST PUSH1 0x20 DUP3 LT DUP2 SUB PUSH2 0x88D JUMPI PUSH2 0x88C PUSH2 0x833 JUMP JUMPDEST JUMPDEST POP SWAP2 SWAP1 POP JUMP JUMPDEST PUSH1 0x0 DUP2 SWAP1 POP DUP2 PUSH1 0x0 MSTORE PUSH1 0x20 PUSH1 0x0 KECCAK256 SWAP1 POP SWAP2 SWAP1 POP JUMP JUMPDEST PUSH1 0x0 PUSH1 0x20 PUSH1 0x1F DUP4 ADD DIV SWAP1 POP SWAP2 SWAP1 POP JUMP JUMPDEST PUSH1 0x0 DUP3 DUP3 SHL SWAP1 POP SWAP3 SWAP2 POP POP JUMP JUMPDEST PUSH1 0x0 PUSH1 0x8 DUP4 MUL PUSH2 0x8F5 PUSH32 0xFFFFFFFFFFFFFFFFFFFFFFFFFFFFFFFFFFFFFFFFFFFFFFFFFFFFFFFFFFFFFFFF DUP3 PUSH2 0x8B8 JUMP JUMPDEST PUSH2 0x8FF DUP7 DUP4 PUSH2 0x8B8 JUMP JUMPDEST SWAP6 POP DUP1 NOT DUP5 AND SWAP4 POP DUP1 DUP7 AND DUP5 OR SWAP3 POP POP POP SWAP4 SWAP3 POP POP POP JUMP JUMPDEST PUSH1 0x0 DUP2 SWAP1 POP SWAP2 SWAP1 POP JUMP JUMPDEST PUSH1 0x0 PUSH2 0x93C PUSH2 0x937 PUSH2 0x932 DUP5 PUSH2 0x43C JUMP JUMPDEST PUSH2 0x917 JUMP JUMPDEST PUSH2 0x43C JUMP JUMPDEST SWAP1 POP SWAP2 SWAP1 POP JUMP JUMPDEST PUSH1 0x0 DUP2 SWAP1 POP SWAP2 SWAP1 POP JUMP JUMPDEST PUSH2 0x956 DUP4 PUSH2 0x921 JUMP JUMPDEST PUSH2 0x96A PUSH2 0x962 DUP3 PUSH2 0x943 JUMP JUMPDEST DUP5 DUP5 SLOAD PUSH2 0x8C5 JUMP JUMPDEST DUP3 SSTORE POP POP POP POP JUMP JUMPDEST PUSH1 0x0 SWAP1 JUMP JUMPDEST PUSH2 0x97F PUSH2 0x972 JUMP JUMPDEST PUSH2 0x98A DUP2 DUP5 DUP5 PUSH2 0x94D JUMP JUMPDEST POP POP POP JUMP JUMPDEST JUMPDEST DUP2 DUP2 LT ISZERO PUSH2 0x9AE JUMPI PUSH2 0x9A3 PUSH1 0x0 DUP3 PUSH2 0x977 JUMP JUMPDEST PUSH1 0x1 DUP2 ADD SWAP1 POP PUSH2 0x990 JUMP JUMPDEST POP POP JUMP JUMPDEST PUSH1 0x1F DUP3 GT ISZERO PUSH2 0x9F3 JUMPI PUSH2 0x9C4 DUP2 PUSH2 0x893 JUMP JUMPDEST PUSH2 0x9CD DUP5 PUSH2 0x8A8 JUMP JUMPDEST DUP2 ADD PUSH1 0x20 DUP6 LT ISZERO PUSH2 0x9DC JUMPI DUP2 SWAP1 POP JUMPDEST PUSH2 0x9F0 PUSH2 0x9E8 DUP6 PUSH2 0x8A8 JUMP JUMPDEST DUP4 ADD DUP3 PUSH2 0x98F JUMP JUMPDEST POP POP JUMPDEST POP POP POP JUMP JUMPDEST PUSH1 0x0 DUP3 DUP3 SHR SWAP1 POP SWAP3 SWAP2 POP POP JUMP JUMPDEST PUSH1 0x0 PUSH2 0xA16 PUSH1 0x0 NOT DUP5 PUSH1 0x8 MUL PUSH2 0x9F8 JUMP JUMPDEST NOT DUP1 DUP4 AND SWAP2 POP POP SWAP3 SWAP2 POP POP JUMP JUMPDEST PUSH1 0x0 PUSH2 0xA2F DUP4 DUP4 PUSH2 0xA05 JUMP JUMPDEST SWAP2 POP DUP3 PUSH1 0x2 MUL DUP3 OR SWAP1 POP SWAP3 SWAP2 POP POP JUMP JUMPDEST PUSH2 0xA48 DUP3 PUSH2 0x753 JUMP JUMPDEST PUSH8 0xFFFFFFFFFFFFFFFF DUP2 GT ISZERO PUSH2 0xA61 JUMPI PUSH2 0xA60 PUSH2 0x49F JUMP JUMPDEST JUMPDEST PUSH2 0xA6B DUP3 SLOAD PUSH2 0x862 JUMP JUMPDEST PUSH2 0xA76 DUP3 DUP3 DUP6 PUSH2 0x9B2 JUMP JUMPDEST PUSH1 0x0 PUSH1 0x20 SWAP1 POP PUSH1 0x1F DUP4 GT PUSH1 0x1 DUP2 EQ PUSH2 0xAA9 JUMPI PUSH1 0x0 DUP5 ISZERO PUSH2 0xA97 JUMPI DUP3 DUP8 ADD MLOAD SWAP1 POP JUMPDEST PUSH2 0xAA1 DUP6 DUP3 PUSH2 0xA23 JUMP JUMPDEST DUP7 SSTORE POP PUSH2 0xB09 JUMP JUMPDEST PUSH1 0x1F NOT DUP5 AND PUSH2 0xAB7 DUP7 PUSH2 0x893 JUMP JUMPDEST PUSH1 0x0 JUMPDEST DUP3 DUP2 LT ISZERO PUSH2 0xADF JUMPI DUP5 DUP10 ADD MLOAD DUP3 SSTORE PUSH1 0x1 DUP3 ADD SWAP2 POP PUSH1 0x20 DUP6 ADD SWAP5 POP PUSH1 0x20 DUP2 ADD SWAP1 POP PUSH2 0xABA JUMP JUMPDEST DUP7 DUP4 LT ISZERO PUSH2 0xAFC JUMPI DUP5 DUP10 ADD MLOAD PUSH2 0xAF8 PUSH1 0x1F DUP10 AND DUP3 PUSH2 0xA05 JUMP JUMPDEST DUP4 SSTORE POP JUMPDEST PUSH1 0x1 PUSH1 0x2 DUP9 MUL ADD DUP9 SSTORE POP POP POP JUMPDEST POP POP POP POP POP POP JUMP JUMPDEST PUSH32 0x4E487B7100000000000000000000000000000000000000000000000000000000 PUSH1 0x0 MSTORE PUSH1 0x11 PUSH1 0x4 MSTORE PUSH1 0x24 PUSH1 0x0 REVERT JUMPDEST PUSH1 0x0 PUSH2 0xB4B DUP3 PUSH2 0x43C JUMP JUMPDEST SWAP2 POP PUSH2 0xB56 DUP4 PUSH2 0x43C JUMP JUMPDEST SWAP3 POP DUP3 DUP3 ADD SWAP1 POP DUP1 DUP3 GT ISZERO PUSH2 0xB6E JUMPI PUSH2 0xB6D PUSH2 0xB11 JUMP JUMPDEST JUMPDEST SWAP3 SWAP2 POP POP JUMP INVALID LOG2 PUSH5 0x6970667358 0x22 SLT KECCAK256 0xF9 0x2C 0xED GT SAR 0xAB 0xF9 0x1F EXTCODEHASH 0xDA 0xCE PUSH27 0xD61501B21DF305472F88DBD2B281CC05369A144464736F6C634300 ADDMOD SLT STOP CALLER "
				},
				"gasEstimates": {
					"creation": {
						"codeDepositCost": "597200",
						"executionCost": "5638",
						"totalCost": "602838"
					},
					"external": {
						"addPlayer(string,string)": "infinite",
						"changePlayerLevel(address)": "infinite",
						"playerCount()": "2407",
						"players(address)": "infinite"
					}
				},
				"methodIdentifiers": {
					"addPlayer(string,string)": "5cb119a9",
					"changePlayerLevel(address)": "8ddf0f7d",
					"playerCount()": "302bcc57",
					"players(address)": "e2eb41ff"
				}
			},
			"storageLayout": {
				"storage": [
					{
						"astId": 4,
						"contract": "coin_time.sol:first_coin",
						"label": "playerCount",
						"offset": 0,
						"slot": "0",
						"type": "t_uint256"
					},
					{
						"astId": 9,
						"contract": "coin_time.sol:first_coin",
						"label": "players",
						"offset": 0,
						"slot": "1",
						"type": "t_mapping(t_address,t_struct(Player)25_storage)"
					}
				],
				"types": {
					"t_address": {
						"encoding": "inplace",
						"label": "address",
						"numberOfBytes": "20"
					},
					"t_enum(Level)13": {
						"encoding": "inplace",
						"label": "enum first_coin.Level",
						"numberOfBytes": "1"
					},
					"t_mapping(t_address,t_struct(Player)25_storage)": {
						"encoding": "mapping",
						"key": "t_address",
						"label": "mapping(address => struct first_coin.Player)",
						"numberOfBytes": "32",
						"value": "t_struct(Player)25_storage"
					},
					"t_string_storage": {
						"encoding": "bytes",
						"label": "string",
						"numberOfBytes": "32"
					},
					"t_struct(Player)25_storage": {
						"encoding": "inplace",
						"label": "struct first_coin.Player",
						"members": [
							{
								"astId": 15,
								"contract": "coin_time.sol:first_coin",
								"label": "playerAddress",
								"offset": 0,
								"slot": "0",
								"type": "t_address"
							},
							{
								"astId": 18,
								"contract": "coin_time.sol:first_coin",
								"label": "playerLevel",
								"offset": 20,
								"slot": "0",
								"type": "t_enum(Level)13"
							},
							{
								"astId": 20,
								"contract": "coin_time.sol:first_coin",
								"label": "firstName",
								"offset": 0,
								"slot": "1",
								"type": "t_string_storage"
							},
							{
								"astId": 22,
								"contract": "coin_time.sol:first_coin",
								"label": "lastName",
								"offset": 0,
								"slot": "2",
								"type": "t_string_storage"
							},
							{
								"astId": 24,
								"contract": "coin_time.sol:first_coin",
								"label": "createTime",
								"offset": 0,
								"slot": "3",
								"type": "t_uint256"
							}
						],
						"numberOfBytes": "128"
					},
					"t_uint256": {
						"encoding": "inplace",
						"label": "uint256",
						"numberOfBytes": "32"
					}
				}
			},
			"userdoc": {
				"kind": "user",
				"methods": {},
				"version": 1
			}
		}
	}
}